:1000000045C0000058C0000056C0000054C00000A9
:1000100052C0000050C000004EC000004CC00000A4
:100020004AC0000048C0000046C0000044C00000B4
:1000300042C0000040C000003EC000003CC00000C4
:100040003AC0000038C0000036C0000034C00000D4
:1000500032C0000030C000002EC000002CC00000E4
:100060002AC0000028C0000026C0000024C00000F4
:1000700022C0000020C000001EC000001CC0000004
:100080001AC0000018C0000016C0000011241FBED6
:10009000CFEFD0E1DEBFCDBF11E0A0E0B1E0E6E000
:1000A000F2E000E00BBF02C007900D92A835B10747
:1000B000D9F782D0A6C0A4CF9093900089B988E1E7
:1000C0008AB986E08093950008955D9BFECF8CB938
:1000D0000895CF93DF93EC018881882329F021963E
:1000E000F4DF89918111FCCFDF91CF91089580E0F9
:1000F00091E0EFDF84E091E0ECDF88E091E0E9DF80
:100100008EE091E0E6DF84E191E0E3CF08950F9384
:100110001F93CF93DF93082F162FEA018AE191E016
:10012000D8DF80E3800FD1DF8CE2CFDF80E3810F67
:10013000CCDF8DE0CADF8EE191E0CBDFCE01C9DFFD
:100140008DE0C3DFDF91CF911F910F9108950F9341
:100150001F93CF93DF93FC0101900020E9F73197C3
:10016000E81BF90B9F012F51310912161306FCF4FD
:10017000EC018C01020F131FAE0161E070E081E021
:1001800090E0C5DFAE01405F5F4F61E070E082E06C
:1001900090E0BDDF2FEF81EE94E021508040904051
:1001A000E1F700C000002196C017D10729F7DF91C1
:1001B000CF911F910F910895CF93DF93CDB7DEB705
:1001C000E6970FB6F894DEBF0FBECDBF87E690E08E
:1001D00073DF8DDF86E3E2E2F1E0DE01119601904C
:1001E0000D928A95E1F783DFCE010196B0DF2FEF04
:1001F00081EE94E0215080409040E1F700C0000083
:06020000F6CFF894FFCFD9
:1002060024490D0024430D0024422C300D002444C3
:100216002C310D00244C2C310D0024472C00245485
:100226002C004877616E672053656F6E204A656FB4
:100236006E67204465706172746D656E74206F66BA
:1002460020456C656374726F6E696320456E6769DD
:080256006E656572696E6700B8
:00000001FF
