S01C000041546D6567613132385F5350495F4D61737465722E7372656328
S113000045C0000053C0000051C000004FC00000B4
S11300104DC000004BC0000049C0000047C00000B4
S113002045C0000043C0000041C000003FC00000C4
S11300303DC000003BC0000039C0000037C00000D4
S113004035C0000049C0000031C000002FC00000CE
S11300502DC000002BC0000029C0000027C00000F4
S113006025C0000023C0000021C000001FC0000004
S11300701DC000001BC0000019C0000017C0000014
S113008015C0000013C0000011C0000011241FBEE1
S1130090CFEFD0E1DEBFCDBF21E0A0E0B1E001C0F1
S11300A01D92A130B207E1F726D037C0A9CF9093B3
S11300B0900089B988E18AB986E080939500089513
S11300C05D9BFECF8CB9089587B3876187BB8DB1E3
S11300D0806D8DB9C49A08951F920F920FB60F9236
S11300E011248F938FB1809300018F910F900FBED5
S11300F00F901F9018958FEF8ABBE6DF87E690E09C
S1130100D6DF80E88FBF80910001DADF83EC99E0CD
S11101100197F1F700C00000F6CFF894FFCF7E
S9030000FC
