S019000047616D655F446156696E63695F436F64652E73726563BA
S113000045C0000061C000005FC000005DC000008A
S11300105BC0000059C0000057C0000055C000007C
S113002053C0000051C000004FC000004DC000008C
S11300304BC0000049C0000047C0000045C000009C
S113004043C0000041C000003FC000003DC00000AC
S11300503BC0000039C0000037C0000035C00000BC
S113006033C0000031C000002FC000002DC00000CC
S11300702BC0000029C0000027C0000025C00000DC
S113008023C0000021C000001FC0000011241FBEB7
S1130090CFEFD0E1DEBFCDBF14E0A0E0B1E0E8E3F4
S11300A0F3E100E00BBF02C007900D92AC37B1073B
S11300B0D9F725E0ACE7B4E001C01D92AC34B20737
S11300C0E1F7A1D30C949A099BCF81E083BF87BF4A
S11300D012BE83E085BD80E487BF8DE584BD0895AD
S11300E09093900089B988E18AB986E0809395005D
S11300F008955D9BFECF8CB90895CF93DF93EC01F7
S11301008881882329F02196F4DF89918111FCCF1D
S1130110DF91CF9108955F9BFECF8CB108959093AA
S113012098008093990088E180939A0086E08093F8
S11301309D000895EBE9F0E0908195FFFDCF809359
S11301409C000895CF93DF93EC018881882329F0E4
S11301502196F0DF89918111FCCFDF91CF91089531
S113016061110DC0811104C080E091E0C6CF0895F3
S1130170813009F0B3C080E091E0E4CF08956130AC
S113018069F4811104C083E091E0B7CF0895813010
S113019009F0A4C083E091E0D5CF0895623069F4FA
S11301A0811104C086E091E0A8CF0895813009F060
S11301B095C086E091E0C6CF0895633069F481115B
S11301C004C089E091E099CF0895813009F086C098
S11301D089E091E0B7CF0895643069F4811104C0D7
S11301E08CE091E08ACF0895813009F077C08CE0EB
S11301F091E0A8CF0895653069F4811104C08FE0BF
S113020091E07BCF0895813009F068C08FE091E0E0
S113021099CF0895663069F4811104C082E191E0B8
S11302206CCF0895813009F059C082E191E08ACF02
S11302300895673069F4811104C085E191E05DCFD0
S11302400895813009F04AC085E191E07BCF08959B
S1130250683069F4811104C088E191E04ECF0895BB
S1130260813009F03BC088E191E06CCF089569309A
S113027061F4811104C08BE191E03FCF0895813096
S113028069F58BE191E05ECF08956A3061F48111E4
S113029004C08EE191E031CF08958130F9F48EE10C
S11302A091E050CF08956B3061F4811104C081E274
S11302B091E023CF0895813089F481E291E042CF27
S11302C008956C3059F4811104C084E291E015CF93
S11302D00895813019F484E291E034CF08950F93A6
S11302E01F93CF93DF9387E291E007DF809180042F
S11302F0882399F0C1E0D0E083E391E0FEDE6C2F27
S113030080E02EDF85E391E0F8DE9E012196809166
S1130310800490E0281739077CF38BE791E0EDDE49
S113032080918004882361F0C0E0D0E087E391E00D
S1130330E4DE21968091800490E0C817D907B4F3D5
S11303408BE791E0DADE809180048823D9F003E81A
S113035014E0C0E0D0E08EE391E0CFDEF8018081CC
S1130360811104C082E491E0C8DE03C086E491E018
S1130370C4DE21960C5F1F4F8091800490E0C81763
S1130380D9074CF38BE791E0B8DE80918004882391
S1130390B9F004E814E0C0E0D0E08AE491E0ADDE16
S11303A0F801608180E0DCDE83E491E0A6DE219642
S11303B00C5F1F4F8091800490E0C817D9076CF33D
S11303C08BE791E09ADE809180048823D9F006E8D7
S11303D014E0C0E0D0E08EE391E08FDEF80180818C
S11303E0811104C08DE491E088DE03C081E591E0D1
S11303F084DE21960C5F1F4F8091800490E0C81723
S1130400D9074CF38BE791E078DE80918004882350
S113041061F0C0E0D0E087E391E06FDE2196809147
S1130420800490E0C817D907B4F38BE791E065DE48
S1130430DF91CF911F910F9108950F931F93CF9345
S1130440DF9385E591E059DE80917F04882399F05C
S1130450C1E0D0E083E391E050DE6C2F80E080DEE9
S113046085E391E04ADE9E01219680917F0490E02D
S1130470281739077CF38BE791E03FDE80917F04F6
S1130480882361F0C0E0D0E087E391E036DE219676
S113049080917F0490E0C817D907B4F38BE791E00B
S11304A02CDE80917F04882309F1CCEBD4E000E0BA
S11304B010E08EE391E021DE8B81811104C081E59F
S11304C091E01BDE0AC08881811104C082E491E0BE
S11304D014DE03C086E491E010DE0F5F1F4F249604
S11304E080917F0490E0081719071CF38BE791E0D3
S11304F004DE80917F048823E9F0CDEBD4E000E0B2
S113050010E08AE491E0F9DD8A81811104C082E679
S113051091E0F3DD03C0688180E022DE83E491E0B2
S1130520ECDD0F5F1F4F249680917F0490E0081745
S113053019073CF38BE791E0E0DD80917F04882389
S113054061F0C0E0D0E087E391E0D7DD21968091AF
S11305507F0490E0C817D907B4F38BE791E0CDDDB1
S1130560DF91CF911F910F9108950F931F93CF9314
S1130570DF9385E691E0E6DD80917F04882399F09E
S1130580C1E0D0E083E391E0DDDD6C2F81E0E8DDC4
S113059085E391E0D7DD9E01219680917F0490E070
S11305A0281739077CF38BE791E0CCDD80917F0439
S11305B0882361F0C0E0D0E087E391E0C3DD2196B9
S11305C080917F0490E0C817D907B4F38BE791E0DA
S11305D0B9DD80917F048823D9F00CEB14E0C0E0EE
S11305E0D0E08EE391E0AEDDF8018081811104C09A
S11305F082E491E0A7DD03C086E491E0A3DD2196C7
S11306000C5F1F4F80917F0490E0C817D9074CF30B
S11306108BE791E097DD80917F048823B9F00DEB9F
S113062014E0C0E0D0E08AE491E08CDDF801608160
S113063081E096DD83E491E085DD21960C5F1F4F18
S113064080917F0490E0C817D9076CF38BE791E0A1
S113065079DD80917F048823D9F00FEB14E0C0E0AA
S1130660D0E08EE391E06EDDF8018081811104C059
S11306708DE491E067DD03C081E591E063DD2196BF
S11306800C5F1F4F80917F0490E0C817D9074CF38B
S11306908BE791E057DD80917F04882361F0C0E00F
S11306A0D0E087E391E04EDD219680917F0490E0D5
S11306B0C817D907B4F38BE791E044DDDF91CF91FC
S11306C01F910F9108950F931F93CF93DF9381E7A9
S11306D091E038DD80918004882399F0C1E0D0E076
S11306E083E391E02FDD6C2F81E03ADD85E391E037
S11306F029DD9E0121968091800490E02817390716
S11307007CF38BE791E01EDD80918004882361F007
S1130710C0E0D0E087E391E015DD2196809180046C
S113072090E0C817D907B4F38BE791E00BDD809113
S11307308004882309F1C3E8D4E000E010E08EE3EC
S113074091E000DD8B81811104C081E591E0FADC48
S11307500AC08881811104C082E491E0F3DC03C003
S113076086E491E0EFDC0F5F1F4F249680918004B4
S113077090E0081719071CF38BE791E0E3DC809104
S113078080048823E9F0C4E8D4E000E010E08AE4BF
S113079091E0D8DC8A81811104C082E691E0D2DC48
S11307A003C0688181E0DCDC83E491E0CBDC0F5F93
S11307B01F4F24968091800490E0081719073CF39A
S11307C08BE791E0BFDC80918004882361F0C0E076
S11307D0D0E087E391E0B6DC21968091800490E03C
S11307E0C817D907B4F38BE791E0ACDCDF91CF9164
S11307F01F910F910895EBE9F0E080818823ECF7D5
S113080080919C0008952F923F924F925F927F9225
S11308108F929F92AF92BF92CF92DF92EF92FF920C
S11308200F931F93CF93DF9387E690E059DC87E61D
S113083090E075DC4ADC0F2EFCEEEF2EF4E0FF2E88
S1130840F02DF70180E090E041E080FD0CC0DF0175
S113085010829C01992314F42F5F3F4F35952795FF
S113086011962C9319C09C0121703078332334F4F1
S1130870215031092E6F3F6F2F5F3F4F21303105DB
S113088059F4DF0140839C01992314F42F5F3F4FF7
S11308903595279511962C931282138201963496DE
S11308A08831910591F6E3E8F4E08FEF8483858342
S11308B091E096831782ECEBF4E08483858382E0F5
S11308C086831782AA24A394B12C08E110E055244E
S11308D053946894442441F8CCE4D5E00F2EFFE00F
S11308E0CF2ED12CF02D752C0F2EF3E02F2E312C82
S11308F0F02D8091810490918204892B81F48EE7FC
S113090091E0FBDB81E991E01DDC05DC8093B3041D
S1130910803329F4B0928204A092810406C08091AD
S11309208104909182040197B9F488EA91E0E5DBAF
S11309308EE791E007DC5FDF8093B304803331F40A
S113094082E090E0909382048093810488ED91E0AA
S1130950D4DB88ED91E0F6DB8091810490918204F0
S11309608230910509F097C01FC082B794B5899F62
S1130970C0011124B801B7D48093BB049927FC01AA
S1130980EE0FFF1FEE0FFF1FE451FB4F32813111B9
S11309900DC0880F991F880F991FFC01E451FB4F6C
S11309A052822F5F20938004209180042430E8F247
S11309B01FC082B794B5899FC0011124B80193D494
S11309C08093BB049927FC01EE0FFF1FEE0FFF1F5E
S11309D0E451FB4F328131110DC0880F991F880FEC
S11309E0991FFC01E451FB4F42822F5F20937F0447
S11309F020917F042430E8F210927E04F701828172
S1130A008130B1F480917E04A82FB0E0AA0FBB1FFF
S1130A10AA0FBB1FAD57BB4F4081518162817381C7
S1130A204D935D936D937C9313978F5F80937E04B6
S1130A303496EC17FD0719F752DC8BE791E05DDB88
S1130A4010927E04F70182818230B1F480917E0499
S1130A50A82FB0E0AA0FBB1FAA0FBB1FA454BB4F03
S1130A6040815181628173814D935D936D937C9339
S1130A7013978F5F80937E043496EC17FD0719F764
S1130A8074DD8BE791E05EDBD8DC1DDED09282045E
S1130A90C092810402C00F97C9F48FEB91E02DDB63
S1130AA08FEB91E04FDB86E092E027DB83E292E07C
S1130AB049DB31DB8093B304803321F43092820428
S1130AC02092810410927D0410927C048091810410
S1130AD0909182044097D9F48FEB91E00EDB8FEB79
S1130AE091E030DB86E092E02DDB85E392E005DBEC
S1130AF082DE8093B304803331F4A4E0B0E0B09399
S1130B008204A093810410927D0410927C0480914D
S1130B108104909182048330910509F090C0EEEE37
S1130B20F4E02EE435E090E08081811101C09F5F04
S1130B303496E217F307C1F790937E04992309F4DE
S1130B4052C0809180048F5F80937E0444C082B73A
S1130B5094B5899FC0011124B801C5D38093BB0407
S1130B609927FC01EE0FFF1FEE0FFF1FE451FB4F0F
S1130B704281411134C0880F991F880F991FFC01CD
S1130B80E451FB4F52822F5F2093800487E492E06C
S1130B90B4DAE091BB04F0E0EE0FFF1FEE0FFF1F8D
S1130BA0E451FB4F8081811104C080E592E0A5DA15
S1130BB003C087E592E0A1DAE091BB04F0E0EE0F18
S1130BC0FF1FEE0FFF1FE451FB4F618180E0C8DA85
S1130BD08BE791E092DA2091800430917E04231710
S1130BE008F4B5CF03C08EE592E087DA10927E0454
S1130BF0F70182818130B1F480917E04A82FB0E0A6
S1130C00AA0FBB1FAA0FBB1FAD57BB4F4081518119
S1130C10628173814D935D936D937C9313978F5F82
S1130C2080937E043496EC17FD0719F758DB05DC36
S1130C3085E090E090938204809381049AC00497A5
S1130C4009F090C0EEEEF4E02EE435E090E080810F
S1130C50811101C09F5F34962E173F07C1F790930F
S1130C607E04992309F452C080917F048F5F80939E
S1130C707E0444C082B794B5899FC0011124B80191
S1130C8032D38093BB049927FC01EE0FFF1FEE0FB4
S1130C90FF1FE451FB4F4281411134C0880F991F5B
S1130CA0880F991FFC01E451FB4F42822F5F209370
S1130CB07F0487E492E046DAE091BB04F0E0EE0FB3
S1130CC0FF1FEE0FFF1FE451FB4F8081811104C011
S1130CD080E592E037DA03C087E592E033DAE09109
S1130CE0BB04F0E0EE0FFF1FEE0FFF1FE451FB4FBC
S1130CF06181852D35DA8BE791E024DA20917F0438
S1130D0030917E04231708F4B5CF03C08EE592E03A
S1130D1019DA10927E04F70182818230B1F4809155
S1130D207E04A82FB0E0AA0FBB1FAA0FBB1FA454B8
S1130D30BB4F40815181628173814D935D936D936B
S1130D407C9313978F5F80937E043496EC17FD0792
S1130D5019F70BDCB8DC8AE090E09093820480936E
S1130D6081046BC08091810490918204059709F0FD
S1130D703DC080917D04811104C08AE792E0BDD911
S1130D8005C0813019F481E992E0B7D989EB92E08A
S1130D90D9D9C1D98093B304ACD99091B30480ED6F
S1130DA0890F8A3068F48093B40426E030E03093ED
S1130DB082042093810480917D048130E9F47BC214
S1130DC080917D04813091F4903781F48BE791E038
S1130DD094D98AED92E091D983EE92E0B3D980E17F
S1130DE090E0909382048093810442C080918104B6
S1130DF090918204069709F510927D048CD9809312
S1130E00B30477D98BE791E078D98091B304805308
S1130E108A3098F4E4EBF4E081839081990F292FD0
S1130E20220F220F920F890F8150828387E090E076
S1130E30909382048093810406C0809181049091F0
S1130E4082040797A9F485E093E057D964D9809385
S1130E50B3044FD98091B30480538A3048F480930B
S1130E60B70488E090E0909382048093810406C0E4
S1130E7080918104909182040897F1F44CD9809375
S1130E80B30437D98BE791E038D98091B304805308
S1130E908A3090F4E7EBF4E081839081990F292F55
S1130EA0220F220F920F890F828389E090E09093A2
S1130EB082048093810407C080918104909182040C
S1130EC0099709F090C0E091B604F0E0EE0FFF1F1F
S1130ED0EE0FFF1FE454FB4F818180937E049091B9
S1130EE0B904891373C080E193E007D98AE193E0E0
S1130EF029D9E091B604F0E0EE0FFF1FEE0FFF1FBB
S1130F00E454FB4F8081811104C080E592E01AD93A
S1130F1003C087E592E016D90F2EF4EB8F2EF4E090
S1130F209F2EF02DD4011296EC91F0E0EE0FFF1FEE
S1130F30EE0FFF1FE454FB4F6181852D11D98BE720
S1130F4091E000D9F401228130E0F901EE0FFF1F96
S1130F50EE0FFF1FE454FB4F53829181F701220FE0
S1130F60331F220F331F24543B4F8181891306C042
S1130F704081D9018C91481301C053823496EC17F7
S1130F80FD0799F770927D04EFEBF4E02FEE34E067
S1130F9090E08081813009F49F5F3496E217F30773
S1130FA0C1F790937E0480917F04981307C08EE16B
S1130FB090E0909382048093810478C085E090E06F
S1130FC0909382048093810438DA0DC08DE293E01B
S1130FD094D885E393E0B6D880E190E090938204BE
S1130FE08093810463C080918104909182040A9764
S1130FF009F037C080917C04811104C08AE792E033
S1131000A1D805C0813019F481E992E09BD88FE51D
S113101093E073D8F0DB8093B3048CD89091B3043D
S113102080ED890F8A3040F48093B4042BE030E0E3
S1131030309382042093810480917C04813079F47C
S1131040903769F48BE791E07DD88AED92E07AD805
S113105080E893E052D8D0928204C0928104109226
S11310607C0480918104909182040B97F9F4C3DB92
S11310708093B3045FD88BE791E064D88091B30484
S113108080538A3098F4E4EBF4E081839081990FE3
S1131090292F220F220F920F890F815082838CE017
S11310A090E0909382048093810406C0809181042F
S11310B0909182040C97A9F485E093E043D89BDBDC
S11310C08093B30437D88091B30480538A3048F4B2
S11310D08093B7048DE090E0909382048093810420
S11310E006C080918104909182040D97F1F483DB12
S11310F08093B3041FD88BE791E024D88091B30484
S113110080538A3090F4E7EBF4E081839081990F67
S1131110292F220F220F920F890F82838EE090E0F5
S1131120909382048093810408C0809181049091FB
S113113082048E30910509F096C0E091B604F0E087
S1131140EE0FFF1FEE0FFF1FED57FB4F81818093C2
S11311507E049091B904891379C080E193E00E94E0
S1131160A20082EA93E00E947D00E091B604F0E0E0
S1131170EE0FFF1FEE0FFF1FED57FB4F8081811114
S113118005C080E592E00E947D0004C087E592E0FE
S11311900E947D000F2EF4EB8F2EF4E09F2EF02D95
S11311A0D4011296EC91F0E0EE0FFF1FEE0FFF1F3B
S11311B0ED57FB4F618180E00E94B0008BE791E026
S11311C00E947D00F401228130E0F901EE0FFF1F3F
S11311D0EE0FFF1FED57FB4F53829181F701220F52
S11311E0331F220F331F2D573B4F8181891306C0B4
S11311F04081D9018C91481301C053823496EC1775
S1131200FD0799F770927C04E6E8F4E026EB34E0FD
S113121090E08081813009F49F5F3496E217F307F0
S1131220C1F790937E0480918004981307C08FE1E6
S113123090E090938204809381042CC044DA8AE085
S113124090E0909382048093810453CB8DE293E0E9
S11312500E94A20085EB93E00E947D00D09282045C
S1131260C092810446CB8E31910589F48FEB91E0D5
S11312700E947D008FEB91E00E94A2008FED93E02D
S11312800E947D008FED93E00E94A20018C04F974A
S113129009F02FCB8FEB91E00E947D008FEB91E062
S11312A00E94A2008DE294E00E947D008DE294E011
S11312B00E94A20004C0903709F09ECD87CD80E043
S11312C090E0DF91CF911F910F91FF90EF90DF900D
S11312D0CF90BF90AF909F908F907F905F904F90F2
S11312E03F902F90089597FB072E16F4009406D094
S11312F077FD08D00BD007FC05D03EF4909581957E
S11313009F4F0895709561957F4F0895AA1BBB1B4D
S113131051E107C0AA1FBB1FA617B70710F0A61BF1
S1131320B70B881F991F5A95A9F780959095BC0112
S10B1330CD010895F894FFCFEC
S11313383030003031003032003033003034003087
S1131348350030360030370030380030390031305D
S1131358003131003132005031204465636B203A4A
S11313680D0A00202020007C2D2D2D2D7C007C20B2
S1131378200042207C0057207C007C20004F207CE9
S11313880058207C005032204465636B203A200DBD
S11313980A005858005032204465636B203A0D0AFD
S11313A8005031204465636B203A200D0A005072C6
S11313B8657373203020746F2073746172740D0A1E
S11313C80057616974696E6720666F7220506C619A
S11313D879657220310D0A0057616974696E672056
S11313E8666F7220506C6179657220320D0A002D87
S11313F82D2D2D2D2D2D2D2D2D2D2D2D2D2D2D2D11
S11314082D2D2D2D2D2D2D2D2D2D2D2D2D2D2D2D00
S11314182D2D2D2D2D2D2D2D2D2D2D2D2D2D2D2DF0
S11314282D2D2D2D2D2D2D2D2D2D2D2D2D2D2D2DE0
S11314382D2D2D0D0A005072657373203020746FA2
S113144820737461727420796F7572207475726E6A
S11314580D0A00506C617965722031277320747508
S1131468726E0D0A00506C61796572203227732000
S11314787475726E0D0A00596F75206765742000C3
S1131488426C61636B200057686974652000546876
S1131498657265206973206E6F2063617264206FC2
S11314A86E206669656C640D0A0043686F6F736526
S11314B8206361726420746F206F70656E203A2017
S11314C80043686F6F7365206361726420746F20D2
S11314D86F70656E2C205072657373207020746F62
S11314E82070617373203A2000506C617965722012
S11314F83120697320636865636B696E6720796F4F
S1131508757220636172640D0A00506173736564B7
S11315180D0A00506C617965722031207061737313
S113152865642C204974277320796F75722074754B
S1131538726E0D0A004E756D6265723F203A200086
S1131548436F72726563740D0A00506C6179657239
S113155820312067657420796F7572200057726F87
S11315686E670D0A00506C617965722031206765D9
S1131578742077726F6E6720636172642C204974DB
S1131588277320796F7572207475726E0D0A005076
S11315986C61796572203220697320636865636BB6
S11315A8696E6720796F757220636172640D0A0031
S11315B8506C617965722032207061737365642C94
S11315C8204974277320796F7572207475726E0DB3
S11315D80A00506C6179657220322067657420793D
S11315E86F75722000506C617965722032206765CE
S11315F8742077726F6E6720636172642C2049745B
S1131608277320796F7572207475726E0D0A002A1B
S11316182A2A2A2A2A2A2A2A2A2A2A2A2A205031FB
S11316282057696E202A2A2A2A2A2A2A2A2A2A2A72
S11316382A2A2A0D0A2A2A2A2A2A2A2A2A2A2A2A3B
S11316482A2A2A205032204C6F7365202A2A2A2AF3
S11316582A2A2A2A2A2A2A2A2A2A0D0A002A2A2A45
S11316682A2A2A2A2A2A2A2A2A2A2A205032205787
S1131678696E202A2A2A2A2A2A2A2A2A2A2A2A2A45
S11316882A0D0A2A2A2A2A2A2A2A2A2A2A2A2A2AEB
S11316982A205031204C6F7365202A2A2A2A2A2AA4
S10F16A82A2A2A2A2A2A2A2A0D0A0000CB
S9030000FC
