:1000000045C0000060C000005EC000005CC0000091
:100010005AC0000058C0000056C0000054C0000084
:1000200052C0000050C000004EC000004CC0000094
:100030004AC0000048C0000046C0000044C00000A4
:1000400042C0000040C000003EC000003CC00000B4
:100050003AC0000038C0000036C0000034C00000C4
:1000600032C0000030C000002EC000002CC00000D4
:100070002AC0000028C0000026C0000024C00000E4
:1000800022C0000020C000001EC0000011241FBEBE
:10009000CFEFD0E1DEBFCDBF11E0A0E0B1E0EAE8F4
:1000A000F7E000E00BBF02C007900D92AE39B10738
:1000B000D9F721E0AEE9B1E001C01D92A03AB20744
:1000C000E1F7FBD060C39CCF84E083BF81E087BFB2
:1000D00012BE08959093900089B988E18AB986E0AC
:1000E0008093950008955D9BFECF8CB90895CF93C2
:1000F000DF93EC018881882329F02196F4DF899130
:100100008111FCCFDF91CF9108955F9BFECF8CB121
:100110000895909398008093990088E180939A00C5
:1001200086E080939D000895EBE9F0E0908195FFD3
:10013000FDCF80939C00089561110BC0811103C015
:1001400080E3D1CF0895813009F0A0C080E3ECCFE7
:100150000895613059F4811103C081E3C4CF08953B
:10016000813009F093C081E3DFCF0895623059F404
:10017000811103C082E3B7CF0895813009F086C0B2
:1001800082E3D2CF0895633059F4811103C083E331
:10019000AACF0895813009F079C083E3C5CF0895CF
:1001A000643059F4811103C084E39DCF08958130F8
:1001B00009F06CC084E3B8CF0895653059F481111B
:1001C00003C085E390CF0895813009F05FC085E3D7
:1001D000ABCF0895663059F4811103C086E383CF15
:1001E0000895813009F052C086E39ECF08956730AC
:1001F00059F4811103C087E376CF0895813009F067
:1002000045C087E391CF0895683059F4811103C048
:1002100088E369CF0895813009F038C088E384CF3E
:100220000895693051F4811103C089E35CCF0895CA
:10023000813061F589E378CF08956A3061F48111E6
:1002400004C080E091E053CF08958130F9F480E05C
:1002500091E04DCF08956B3061F4811104C083E0CB
:1002600091E045CF0895813089F483E091E03FCF5C
:1002700008956C3059F4811104C086E091E037CFC5
:100280000895813019F486E091E031CF0895CF933D
:10029000DF93EC018881882329F0219645DF89913D
:1002A0008111FCCFDF91CF910895EBE9F0E08081DF
:1002B0008823ECF780919C000895CF93DF93CDB70E
:1002C000DEB7C65CD1090FB6F894DEBF0FBECDBF56
:1002D00087E690E0FFDE87E690E01BDFF5DEFE01BB
:1002E000379680E090E041E080FD0CC0DF01108295
:1002F0009C01992314F42F5F3F4F35952795119654
:100300002C9319C09C0121703078332334F4215090
:1003100031092E6F3F6F2F5F3F4F2130310559F468
:10032000DF0140839C01992314F42F5F3F4F3595E3
:10033000279511962C931282138201963496883158
:10034000910591F68FEFAC968FAFAC97AD968FAFCE
:10035000AD97A12C712CCE0101966C011C01220CD1
:10036000331C220C331CE7E9F0E0EC0FFD1F2E0ECE
:100370003F1EFFEF2F1A3F0A2E0184E0480E511C4A
:100380000F2EFBEABF2EF02D7E0197E6E90EF11C41
:1003900080919E0190919F01892B81F489E091E0E9
:1003A000A6DE8CE191E073DFB0DE893539F481E0BF
:1003B00090E090939F0180939E0106C080919E01E2
:1003C00090919F01019781F483E391E090DE89E0B1
:1003D00091E05DDF6ADF893539F482E090E0909347
:1003E0009F0180939E0108C080919E0190919F0182
:1003F0008230910509F00FC148E151E01DC082B77C
:100400008B9D912D112492959F70949F801911249A
:10041000282F30E0F60194E0899FE00DF11D1124B2
:1004200080858111ECCF220F331F220F331FF6017D
:10043000E20FF31F50877394E3E0E71598F182B75A
:100440008B9D912D112492959F70949F801911245A
:10045000282F30E0F60194E0899FE00DF11D112472
:1004600080858111CCCFDFCF82B78B9D912D112458
:1004700092959F70949F80191124282F30E0F601E7
:1004800094E0899FE00DF11D112480858111ECCF4E
:10049000220F331F220F331FF601E20FF31F508785
:1004A000A39402C048E152E0E3E0EA1540F48AE494
:1004B00091E01DDE8E01095F1F4F612C15C082B7D0
:1004C0008B9D912D112492959F70949F80191124DA
:1004D000282F30E0F60194E0899FE00DF11D1124F2
:1004E00080858111C1CFD4CFF8018281813061F53F
:1004F0009701F4E06F9E200D311D1124F8018081D9
:100500009181A281B381F90180839183A283B38316
:1005100063944701F4E06F9E800C911C1124F40158
:10052000608170E080E090E007DEF401618170E0BE
:1005300080E090E001DE85E591E0D9DD83EC99E093
:100540000197F1F700C000000C5F1F4FE016F106A5
:1005500059F689E591E09BDE8E01095F1F4F612C02
:10056000F8018281823051F50F2EF7E98F2E912C00
:10057000F02D8C0E9D1EF4E06F9E800C911C1124BA
:10058000F80160812181982F8381F40160832183A8
:100590009283838370E081E090E0CEDDF40161819D
:1005A00070E081E090E0C8DD85E591E070DE83ECED
:1005B00099E00197F1F700C0000063940C5F1F4FB2
:1005C000E016F10669F687E491E061DE89E591E0E5
:1005D0005EDE8E0109561F4F480190E1890E911C85
:1005E000F801608170E081E090E0A6DDF8016181B2
:1005F00070E081E090E0A0DD85E591E048DE0C5FF1
:100600001F4F0815190561F783E090E090939F0153
:1006100080939E0102C0039779F484E691E067DD40
:1006200074DD80538A3040F4898384E090E09093B5
:100630009F0180939E0106C080919E0190919F0131
:100640000497F9F462DD80538A30D8F48A83998163
:10065000990F692F660F660F690F860F8B83682FBE
:1006600070E081E090E068DD89EF90E00197F1F7BC
:1006700000C0000085E090E090939F0180939E0170
:1006800006C080919E0190919F01059779F48BE7B8
:1006900091E02DDD3ADD80538A3040F48C8386E092
:1006A00090E090939F0180939E0106C080919E01EF
:1006B00090919F010697F9F428DD80538A30D8F491
:1006C0008D839C81990F692F660F660F690F860FC6
:1006D0008E83682F70E081E090E02EDDE9EFF0E09E
:1006E0003197F1F700C0000087E090E090939F0100
:1006F00080939E0108C080919E0190919F01873058
:10070000910509F03CC0F101008110E0B80181E0E1
:1007100090E012DD89EF90E00197F1F700C0000052
:100720004016510621F488E891E0B1DD03C084E968
:1007300091E0ADDD88E090E090939F0180939E0171
:100740008E0109561F4F480190E1890E911CF80156
:10075000618170E081E090E0EFDC86E591E097DD7B
:100760000C5F1F4F0815190591F787E491E08FDDA5
:1007700089E090E090939F0180939E0109CE0897B5
:0A07800009F006CEDDCFF894FFCF9C
:10078A0031300031310031320050726573732059B3
:10079A0020746F2053746172740D0A005761697472
:1007AA00696E6720666F7220506C617965722031BC
:1007BA000D0A0057616974696E6720666F7220506E
:1007CA006C6179657220300D0A00503120446563EE
:1007DA006B203A2000202020005032204465636BB1
:1007EA00203A200043686F6F73652043617264206A
:1007FA00746F204F70656E203A20000D0A4E756D99
:10080A006265723F203A20000D0A436F7272656377
:0E081A00740D0A000D0A57526F6E670D0A002A
:00000001FF
