:1000000045C0000060C000005EC000005CC0000091
:100010005AC0000058C0000056C0000054C0000084
:1000200052C0000050C000004EC000004CC0000094
:100030004AC0000048C0000046C0000044C00000A4
:1000400042C0000040C000003EC000003CC00000B4
:100050003AC0000038C0000036C0000034C00000C4
:1000600032C0000030C000002EC000002CC00000D4
:100070002AC0000028C0000026C0000024C00000E4
:1000800022C0000020C000001EC0000011241FBEBE
:10009000CFEFD0E1DEBFCDBF11E0A0E0B1E0E4E002
:1000A000FAE000E00BBF02C007900D92A63DB10739
:1000B000D9F721E0A6EDB1E001C01D92A83DB2073D
:1000C000E1F7FAD09DC49CCF81E083BF87BF12BE09
:1000D00008959093900089B988E18AB986E0809369
:1000E000950008955D9BFECF8CB90895CF93DF9363
:1000F000EC018881882329F02196F4DF8991811110
:10010000FCCFDF91CF9108955F9BFECF8CB1089516
:10011000909398008093990088E180939A0086E0FC
:1001200080939D000895EBE9F0E0908195FFFDCF6D
:1001300080939C00089561110BC0811103C080E37E
:10014000D1CF0895813009F0A0C080E3ECCF0895AD
:10015000613059F4811103C081E3C4CF0895813027
:1001600009F093C081E3DFCF0895623059F4811123
:1001700003C082E3B7CF0895813009F086C082E3DF
:10018000D2CF0895633059F4811103C083E3AACF1D
:100190000895813009F079C083E3C5CF08956430B4
:1001A00059F4811103C084E39DCF0895813009F093
:1001B0006CC084E3B8CF0895653059F4811103C051
:1001C00085E390CF0895813009F05FC085E3ABCF20
:1001D0000895663059F4811103C086E383CF0895F2
:1001E000813009F052C086E39ECF0895673059F4FC
:1001F000811103C087E376CF0895813009F045C0AF
:1002000087E391CF0895683059F4811103C088E3E2
:1002100069CF0895813009F038C088E384CF08950C
:10022000693051F4811103C089E35CCF08958130B6
:1002300061F589E378CF08956A3061F4811104C0D3
:1002400080E091E053CF08958130F9F480E091E0AF
:100250004DCF08956B3061F4811104C083E091E0CB
:1002600045CF0895813089F483E091E03FCF089530
:100270006C3059F4811104C086E091E037CF0895C5
:10028000813019F486E091E031CF0895CF93DF9368
:10029000EC018881882329F0219645DF899181111D
:1002A000FCCFDF91CF910895EBE9F0E080818823C6
:1002B000ECF780919C000895CF93DF93CDB7DEB724
:1002C000C05CD1090FB6F894DEBF0FBECDBF87E684
:1002D00090E0FFDE87E690E01BDFF6DEFE01319660
:1002E00080E090E041E080FD0CC0DF0110829C01C5
:1002F000992314F42F5F3F4F3595279511962C9332
:1003000019C09C0121703078332334F42150310915
:100310002E6F3F6F2F5F3F4F2130310559F4DF01C2
:1003200040839C01992314F42F5F3F4F3595279507
:1003300011962C931282138201963496883191057E
:1003400091F68FEFA6968FAFA697A7968FAFA79738
:10035000A12CB12C0F2EFBEACF2EF02D0F2EF8E1A1
:10036000DF2EF02D7E0181E6E80EF11C8091D60192
:100370009091D701892B81F489E091E0B7DE8CE17F
:1003800091E084DFC1DE893539F481E090E090931B
:10039000D7018093D60106C08091D6019091D701F4
:1003A000019781F483E391E0A1DE89E091E06EDFC3
:1003B0007BDF893539F482E090E09093D701809318
:1003C000D60108C08091D6019091D7018230910565
:1003D00009F03AC141E023C082B78C9D912D1124D0
:1003E00092959F709D9D80191124282F30E0E1E0A7
:1003F000F0E0EC0FFD1F94E0899FE00DF11D11244A
:1004000082818111E9CF220F331F220F331FE1E0D8
:10041000F0E0EC0FFD1FE20FF31F4283B394E3E023
:10042000EB15E0F182B78C9D912D112492959F7070
:100430009D9D80191124282F30E0E1E0F0E0EC0FC1
:10044000FD1F94E0899FE00DF11D1124828181112F
:10045000C3CFD9CF82B78C9D912D112492959F70D7
:100460009D9D80191124282F30E0E1E0F0E0EC0F91
:10047000FD1F94E0899FE00DF11D112482818111FF
:10048000E9CF220F331F220F331FE1E0F0E0EC0F22
:10049000FD1FE20FF31F4283A39401C042E0E3E09B
:1004A000EA1540F48AE491E021DECE0101964C0188
:1004B000312C18C082B78C9D912D112492959F707C
:1004C0009D9D80191124282F30E0E1E0F0E0EC0F31
:1004D000FD1F94E0899FE00DF11D1124828181119F
:1004E000B9CFCFCFF4018281813081F59701F4E05B
:1004F0003F9E200D311D1124F40180819181A28144
:10050000B381F90180839183A283B38333948701FC
:10051000F4E03F9E000D111D1124F801608170E090
:1005200080E090E008DE80E0DDDDF801618170E0D0
:1005300080E090E000DE80E0D5DD85E591E0D6DD6D
:1005400089EF90E00197F1F700C0000094E0890E78
:10055000911CE814F90431F689E591E097DE8E01EB
:100560000F5F1F4F312CF8018281823071F50F2E01
:10057000F1E98F2E912CF02D8C0E9D1EF4E03F9E04
:10058000800C911C1124F80160812181982F8381B6
:10059000F401608321839283838370E081E090E0A3
:1005A000CADD80E0C0DDF401618170E081E090E0AF
:1005B000C2DD80E0B8DD85E591E068DE89EF90E09E
:1005C0000197F1F700C0000033940C5F1F4FE01655
:1005D000F10649F680E391E059DE89E591E056DEC7
:1005E0008E010F561F4F480190E1890E911CF801B2
:1005F000608170E081E090E09EDD89EF90E00197FE
:10060000F1F700C00000F801618170E081E090E046
:1006100092DD89EF90E00197F1F700C0000085E5D9
:1006200091E034DEE9EFF0E03197F1F700C000002F
:100630000C5F1F4F80169106D1F683E090E09093F7
:10064000D7018093D60104C08330910509F08AC098
:10065000332433943B0C41E023C082B78C9D912D11
:10066000112492959F709D9D80191124282F30E0B0
:10067000E1E0F0E0EC0FFD1F94E0899FE00DF11D3B
:10068000112482818111E9CF220F331F220F331FE2
:10069000E1E0F0E0EC0FFD1FE20FF31F4283B394A3
:1006A000B31438F08AE491E021DDFE0131964F0168
:1006B00018C082B78C9D912D112492959F709D9D9D
:1006C00080191124282F30E0E1E0F0E0EC0FFD1F4D
:1006D00094E0899FE00DF11D112482818111BDCF2D
:1006E000D3CFF4018281813081F59701F4E03F9E00
:1006F000200D311D1124F40180819181A281B381EB
:10070000F90180839183A283B38333948701F4E05A
:100710003F9E000D111D1124F801608170E080E002
:1007200090E009DD80E0DEDCF801618170E080E0CE
:1007300090E001DD80E0D6DC85E591E0D7DC89EF53
:1007400090E00197F1F700C0000094E0890E911C41
:10075000E814F90431F685E090E09093D701809396
:10076000D60189C0049709F080C0332433943A0C31
:1007700042E023C082B78C9D912D112492959F70E9
:100780009D9D80191124282F30E0E1E0F0E0EC0F6E
:10079000FD1F94E0899FE00DF11D112482818111DC
:1007A000E9CF220F331F220F331FE1E0F0E0EC0FFF
:1007B000FD1FE20FF31F4283A394A31438F089E5D1
:1007C00091E064DD8E010F5F1F4F18C082B78C9DD2
:1007D000912D112492959F709D9D80191124282F91
:1007E00030E0E1E0F0E0EC0FFD1F94E0899FE00DC8
:1007F000F11D112482818111BDCFD3CFF8018281F7
:10080000823071F50F2EF1E98F2E912CF02D8C0E88
:100810009D1EF4E03F9E800C911C1124F801608124
:100820002181982F8381F4016083218392838383C4
:1008300070E081E090E07FDC80E075DCF4016181B4
:1008400070E081E090E077DC80E06DDC85E591E0B0
:100850001DDD89EF90E00197F1F700C000003394AF
:100860000C5F1F4FE016F10649F68091D60190917A
:10087000D7010597A9F4E9EFF0E03197F1F700C04F
:10088000000084E691E032DC3FDC80538A3040F4A3
:1008900026E030E03093D7012093D601582E06C0D1
:1008A0008091D6019091D701069719F52DDC8053E0
:1008B0008A30F8F4752C770C972D990F990F790ED3
:1008C000870D77247A94780E8DE791E0DFDC672D31
:1008D00070E081E090E02FDC89EF90E00197F1F784
:1008E00000C0000087E090E09093D7018093D6018C
:1008F00006C08091D6019091D701079779F48FE8CF
:1009000091E0F4DB01DC80538A3040F428E030E0F1
:100910003093D7012093D601482E07C08091D6018D
:100920009091D701089709F044C0EEDB80538A30DC
:1009300008F03FC0642C660C962D990F990F690E34
:10094000680E8CE991E0A2DCE9EFF0E03197F1F775
:1009500000C00000662D70E081E090E0ECDB89EFE4
:1009600090E00197F1F700C000008FEA91E08EDC83
:10097000E9EFF0E03197F1F700C00000E1E9F0E0C5
:10098000EC0FFD1F84E0789EE00DF11D11246181C4
:1009900070E081E090E0CFDBE9EFF0E03197F1F734
:1009A00000C0000089E090E09093D7018093D601C9
:1009B00007C08091D6019091D701099709F0D6CC54
:1009C000E1E9F0E0EC0FFD1F84E0789EE00DF11D01
:1009D0001124818168120AC080EC91E057DC85E027
:1009E00090E09093D7018093D601C0CC8CEC91E03D
:1009F0004DDC84E090E09093D7018093D601B6CC93
:040A0000F894FFCF98
:100A04003130003131003132005072657373205936
:100A140020746F2053746172740D0A0057616974F5
:100A2400696E6720666F7220506C6179657220313F
:100A34000D0A0057616974696E6720666F722050F1
:100A44006C6179657220320D0A005031204465636F
:100A54006B203A2000202020005032204465636B34
:100A6400203A20000D0A43686F6F7365204361725A
:100A74006420746F204F70656E203A20000D0A4187
:100A840072726179206E756D626572203A20000D74
:100A94000A4E756D6265723F203A20000D0A54615A
:100AA40072676574206E756D626572203A20000D60
:100AB4000A5265616C206E756D626572203A200081
:100AC4000D0A436F72726563740D0A000D0A577242
:060AD4006F6E670D0A00C1
:00000001FF
