S019000047616D655F446156696E63695F436F64652E73726563BA
S113000045C0000060C000005EC000005CC000008D
S11300105AC0000058C0000056C0000054C0000080
S113002052C0000050C000004EC000004CC0000090
S11300304AC0000048C0000046C0000044C00000A0
S113004042C0000040C000003EC000003CC00000B0
S11300503AC0000038C0000036C0000034C00000C0
S113006032C0000030C000002EC000002CC00000D0
S11300702AC0000028C0000026C0000024C00000E0
S113008022C0000020C000001EC0000011241FBEBA
S1130090CFEFD0E1DEBFCDBF12E0A0E0B1E0E0EEF3
S11300A0FCE000E00BBF02C007900D92A63CB10734
S11300B0D9F723E0A6ECB2E001C01D92A839B2073B
S11300C0E1F75AD10BC69CCF81E083BF87BF12BE34
S11300D008959093900089B988E18AB986E0809365
S11300E0950008955D9BFECF8CB90895CF93DF935F
S11300F0EC018881882329F02196F4DF899181110C
S1130100FCCFDF91CF9108955F9BFECF8CB1089512
S1130110909398008093990088E180939A0086E0F8
S113012080939D000895EBE9F0E0908195FFFDCF69
S113013080939C000895CF93DF93EC0188818823FA
S113014029F02196F0DF89918111FCCFDF91CF91C5
S1130150089561110BC0811103C080E3C3CF0895DA
S1130160813009F0A0C080E3DECF0895613059F4F6
S1130170811103C081E3B6CF0895813009F093C0A3
S113018081E3D1CF0895623059F4811103C082E331
S1130190A9CF0895813009F086C082E3C4CF0895C1
S11301A0633059F4811103C083E39CCF08958130F7
S11301B009F079C083E3B7CF0895643059F481110D
S11301C003C084E38FCF0895813009F06CC084E3C9
S11301D0AACF0895653059F4811103C085E382CF15
S11301E00895813009F05FC085E39DCF089566309E
S11301F059F4811103C086E375CF0895813009F065
S113020052C086E390CF0895673059F4811103C03A
S113021087E368CF0895813009F045C087E383CF31
S11302200895683059F4811103C088E35BCF0895C1
S1130230813009F038C088E376CF0895693051F4ED
S1130240811103C089E34ECF0895813061F589E3BC
S11302506ACF08956A3061F4811104C080E091E0AE
S113026045CF08958130F9F480E091E064CF08959A
S11302706B3061F4811104C083E091E037CF0895BD
S1130280813089F483E091E056CF08956C3059F4BD
S1130290811104C086E091E029CF0895813019F4DA
S11302A086E091E048CF08950F931F93CF93DF9397
S11302B089E091E01BDF8091CB028823E9F0C8E05C
S11302C0D3E000E010E08B81811104C084E191E06F
S11302D00DDF06C0688180E03CDF698180E039DFA2
S11302E087E191E003DF0F5F1F4F24968091CB02DB
S11302F090E0081719073CF381E992E0F7DEDF91FB
S1130300CF911F910F9108950F931F93CF93DF9374
S11303108BE191E010DF8091CC028823E9F0CFECEF
S1130320D2E000E010E08B81811104C084E191E00F
S113033002DF06C0688181E00CDF698181E009DFAA
S113034087E191E0F8DE0F5F1F4F24968091CC0285
S113035090E0081719073CF381E992E0ECDEDF91A5
S1130360CF911F910F910895EBE9F0E080818823EC
S1130370ECF780919C0008952F923F924F925F92E8
S11303806F927F928F929F92AF92BF92CF92DF92A1
S1130390EF92FF920F931F93CF93DF9387E690E042
S11303A098DE87E690E0B4DE8FDE0F2EF8E34F2E62
S11303B0F3E05F2EF02DF20180E090E041E080FD5B
S11303C00CC0DF0110829C01992314F42F5F3F4F6E
S11303D03595279511962C9319C09C01217030787E
S11303E0332334F4215031092E6F3F6F2F5F3F4F79
S11303F02130310559F4DF0140839C01992314F421
S11304002F5F3F4F3595279511962C9312821382B7
S1130410019634968831910591F6EFECF2E08FEF76
S11304208483858391E096831782E8E0F3E08483F4
S1130430858382E08683178200E013E00F2EF3E0C9
S1130440EF2EF3E0FF2EF02D0F2EF3E0CF2ED12C64
S1130450F02D0F2EF8E9AF2EF3E0BF2EF02D0F2E66
S1130460FAE06F2E712CF02D0F2EFEE02F2E312C82
S1130470F02D0F2EFBEA8F2EF02D0F2EF8E19F2E7C
S1130480F02D8091CD029091CE02892B91F486E2D9
S113049091E02CDE89E391E04EDE36DE8093FF02AC
S11304A0893539F481E090E09093CE028093CD02B7
S11304B006C08091CD029091CE02019791F480E51F
S11304C091E014DE86E291E036DE4EDF8093FF0297
S11304D0893539F482E090E09093CE028093CD0286
S11304E008C08091CD029091CE028230910509F02E
S11304F0C7C031E022C092B7989D812D1124829506
S11305008F70899D9019112490930703892F90E08F
S1130510FC01EE0FFF1FEE0FFF1FE85CFC4F428152
S113052041110DC0880F991F880F991FFC01E85CC9
S1130530FC4F32832F5F2093CC022091CC022430D5
S1130540D0F232E022C092B7989D812D1124829579
S11305508F70899D9019112490930703892F90E03F
S1130560FC01EE0FFF1FEE0FFF1FE85CFC4F428102
S113057041110DC0880F991F880F991FFC01E85C79
S1130580FC4F32832F5F2093CB022091CB02243087
S1130590D0F21092C8028BE191E0A8DDE2018A81D9
S11305A0813041F5E091C802F0E0EE0FFF1FEE0F3D
S11305B0FF1FE153FD4F888139812A819B81682F78
S11305C0808331832283938380E0C3DDE091C8027A
S11305D0F0E0EE0FFF1FEE0FFF1FE153FD4F6181AF
S11305E080E0B7DD87E191E081DD8091C8028F5F13
S11305F08093C8022496AC16BD0689F681E992E080
S113060075DD1092C80289E091E095DDE2018A81EE
S1130610823041F5E091C802F0E0EE0FFF1FEE0FCB
S1130620FF1FE85FFC4F888139812A819B81682FF5
S1130630808331832283938381E08BDDE091C80240
S1130640F0E0EE0FFF1FEE0FFF1FE85FFC4F61812C
S113065081E07FDD87E191E06EDD8091C8028F5FEC
S11306608093C8022496AC16BD0689F681E992E00F
S113067062DD1ADE49DED092CE02C092CD0204C001
S11306808330910509F06DC03091CC023F5F309307
S1130690C80241E022C092B7989D812D1124829511
S11306A08F70899D9019112490930703892F90E0EE
S11306B0FC01EE0FFF1FEE0FFF1FE85CFC4F5281A1
S11306C051110DC0880F991F880F991FFC01E85C18
S11306D0FC4F42832F5F2093CC022091CC0223173E
S11306E0D0F21092C8028BE191E000DDE2018A8130
S11306F0813041F5E091C802F0E0EE0FFF1FEE0FEC
S1130700FF1FE153FD4F888139812A819B81682F26
S1130710808331832283938380E01BDDE091C802D0
S1130720F0E0EE0FFF1FEE0FFF1FE153FD4F61815D
S113073080E00FDD87E191E0D9DC8091C8028F5F12
S11307408093C8022496CA15DB0589F681E992E0F4
S1130750CDDCAADD85E090E09093CE028093CD02BB
S113076075C0049709F06BC03091CB023F5F3093A2
S1130770C80242E022C092B7989D812D112482952F
S11307808F70899D9019112490930703892F90E00D
S1130790FC01EE0FFF1FEE0FFF1FE85CFC4F5281C0
S11307A051110DC0880F991F880F991FFC01E85C37
S11307B0FC4F42832F5F2093CB022091CB0223175F
S11307C0D0F21092C80289E091E0B5DCE2018A819E
S11307D0823041F5E091C802F0E0EE0FFF1FEE0F0A
S11307E0FF1FE85FFC4F888139812A819B81682F34
S11307F0808331832283938381E0ABDCE091C80260
S1130800F0E0EE0FFF1FEE0FFF1FE85FFC4F61816A
S113081081E09FDC87E191E08EDC8091C8028F5FEC
S11308208093C8022496AC16BD0689F681E992E04D
S113083082DC6ADD7092CE026092CD026AC0809141
S1130840CD029091CE02059709F03DC08091C70278
S1130850811104C087E691E049DC05C0813019F4B8
S11308608EE791E043DC50DC8093FF023BDC909107
S1130870FF0280ED890F8A3068F4D8018C9326E05A
S113088030E03093CE022093CD028091C7028130B4
S113089001F507C28091C7028130A9F4903599F41B
S11308A081E992E023DC86EA91E020DC8FEA91E0A2
S11308B01DDC8DED91E03FDC84E090E09093CE026E
S11308C08093CD0241C08091CD029091CE020697D3
S11308D001F51092C70218DC8093FF0203DC81E962
S11308E092E004DC8091FF0280538A3090F4F80196
S11308F081839081990F292F220F220F920F890F44
S11309008150828387E090E09093CE028093CD0261
S113091006C08091CD029091CE020797A9F48FEF83
S113092091E0E4DBF1DB8093FF02DCDB8091FF02EA
S113093080538A3048F4D7018C9388E090E09093F8
S1130940CE028093CD0206C08091CD029091CE025A
S11309500897E9F4D9DB8093FF02C4DB81E992E0D4
S1130960C5DB8091FF0280538A3088F4F7018183CC
S11309709081990F292F220F220F920F890F8283C2
S113098089E090E09093CE028093CD0208C08091DC
S1130990CD029091CE028930910509F061C0D80151
S11309A01296EC91F0E0EE0FFF1FEE0FFF1FE85FD1
S11309B0FC4F81818093C802F7019281891340C062
S11309C08AE092E093DBD8011296CC91D0E0FE014C
S11309D0EE0FFF1FEE0FFF1FE85FFC4F81E08383E4
S11309E09181F201CC0FDD1FCC0FDD1FC85FDC4FFE
S11309F031E08181891305C020818881281301C0D9
S1130A0033833496EA15FB05A1F74EDC8091C902C5
S1130A108F5F8093C90291E09093C7029091CB02BB
S1130A20891307C08EE190E09093CE028093CD02AB
S1130A307EC085E090E09093CE028093CD0277C093
S1130A4084E192E053DB8CE192E050DB8FEA91E0A9
S1130A504DDB84E090E09093CE028093CD0267C09A
S1130A600A9709F03BC08091C602811104C087E651
S1130A7091E061DB05C0813019F48EE791E05BDB26
S1130A8073DC8093FF024FDB9091FF0280ED890FAE
S1130A908A3068F4F80180832BE030E03093CE0292
S1130AA02093CD028091C6028130F1F4FEC0809182
S1130AB0C602813099F4903589F481E992E03BDBF8
S1130AC086EA91E038DB8FEA91E035DB8EE292E052
S1130AD00DDBD092CE02C092CD0244C08091CD02F3
S1130AE09091CE020B9719F51092C6023DDC8093CB
S1130AF0FF0219DB81E992E01EDB8091FF02805343
S1130B008A30A8F4D80111968C9311979C91990F6F
S1130B10292F220F220F920F890F815012968C9346
S1130B208CE090E09093CE028093CD0206C0809139
S1130B30CD029091CE020C97A9F48FEF91E0FBDAED
S1130B4013DC8093FF02EFDA8091FF0280538A3036
S1130B5048F4F70180838DE090E09093CE02809377
S1130B60CD0206C08091CD029091CE020D97F1F492
S1130B70FBDB8093FF02D7DA81E992E0DCDA809133
S1130B80FF0280538A3090F4D70111968C93119709
S1130B909C91990F292F220F220F920F890F1296E1
S1130BA08C933092CE022092CD0208C08091CD0267
S1130BB09091CE028E30910509F05FC0D801129653
S1130BC0EC91F0E0EE0FFF1FEE0FFF1FE153FD4F1E
S1130BD081818093C802F7019281891340C08AE021
S1130BE092E0A9DAD8011296CC91D0E0FE01EE0F82
S1130BF0FF1FEE0FFF1FE153FD4F81E083839181BF
S1130C00F201CC0FDD1FCC0FDD1FC153DD4F31E0EE
S1130C108181891305C020818881281301C0338311
S1130C203496EA15FB05A1F76FDB8091CA028F5F4A
S1130C308093CA0281E08093C6029091CB02809196
S1130C40C902981307C08FE190E09093CE0280937D
S1130C50CD0220C07092CE026092CD0212CC84E10B
S1130C6092E069DA80E592E066DA8FEA91E063DA8D
S1130C70D092CE02C092CD0204CC8E31910539F4CB
S1130C8082E692E033DA82E692E055DA12C04F97B8
S1130C9009F0F7CB84E992E029DA84E992E04BDAAF
S1130CA008C0903509F015CEFBCD903509F01CCF66
S1130CB004CF80E090E0DF91CF911F910F91FF90DE
S1130CC0EF90DF90CF90BF90AF909F908F907F90E8
S1130CD06F905F904F903F902F900895F894FFCFBE
S1130CE03130003131003132005032204465636BC1
S1130CF0203A20005858002020200050312044651C
S1130D00636B203A20005072657373205920746F0E
S1130D102053746172740D0A0057616974696E67B7
S1130D2020666F7220506C6179657220310D0A0063
S1130D3057616974696E6720666F7220506C6179BF
S1130D40657220320D0A0043686F6F73652043613A
S1130D50726420746F204F70656E203A20004368DF
S1130D606F6F7365204361726420746F204F7065E8
S1130D706E2C205072657373205020746F20506164
S1130D807373203A20005061737365640D0A002D5B
S1130D902D2D2D2D2D2D2D2D2D2D2D2D2D2D2D2D7F
S1130DA02D2D2D2D2D2D2D2D2D2D2D2D2D2D2D2D6F
S1130DB02D2D2D2D2D2D2D2D2D2D0D0A00506C6139
S1130DC07965722031205061737365642C204974F5
S1130DD0277320796F7572207475726E0D0A004E38
S1130DE0756D6265723F203A2000436F72726563CD
S1130DF0740D0A0057726F6E670D0A00506C6179AA
S1130E00657220322773205475726E0D0A00506C7F
S1130E10617965722032205061737365642C2049B6
S1130E2074277320796F7572207475726E0D0A00C1
S1130E30506C6179657220312773205475726E0D80
S1130E400A002A2A2A2A2A2A2A2050312057696E7F
S1130E50202A2A2A2A2A2A2A0D0A2A2A2A2A2A2A35
S1130E602A205032204C6F7365202A2A2A2A2A2AE3
S1130E702A0D0A002A2A2A2A2A2A2A2050322057EE
S1130E80696E202A2A2A2A2A2A2A0D0A2A2A2A2A82
S1130E902A2A2A205032204C6F7365202A2A2A2AB3
S1090EA02A2A2A0D0A00B3
S9030000FC
