S019000047616D655F446156696E63695F436F64652E73726563BA
S113000045C0000060C000005EC000005CC000008D
S11300105AC0000058C0000056C0000054C0000080
S113002052C0000050C000004EC000004CC0000090
S11300304AC0000048C0000046C0000044C00000A0
S113004042C0000040C000003EC000003CC00000B0
S11300503AC0000038C0000036C0000034C00000C0
S113006032C0000030C000002EC000002CC00000D0
S11300702AC0000028C0000026C0000024C00000E0
S113008022C0000020C000001EC0000011241FBEBA
S1130090CFEFD0E1DEBFCDBF13E0A0E0B1E0E6E0FA
S11300A0FFE000E00BBF02C007900D92AC36B10731
S11300B0D9F724E0ACE6B3E001C01D92AC33B2073B
S11300C0E1F760D11EC79CCF81E083BF87BF12BE1A
S11300D083E085BD80E487BF8DE584BD089590935A
S11300E0900089B988E18AB986E0809395000895E3
S11300F05D9BFECF8CB90895CF93DF93EC0188818B
S1130100882329F02196F4DF89918111FCCFDF91B6
S1130110CF9108955F9BFECF8CB108959093980082
S11301208093990088E180939A0086E080939D00F3
S11301300895EBE9F0E0908195FFFDCF80939C005A
S11301400895CF93DF93EC018881882329F02196C9
S1130150F0DF89918111FCCFDF91CF910895611176
S11301600BC0811103C080E3C3CF0895813009F02F
S1130170A0C080E3DECF0895613059F4811103C03B
S113018081E3B6CF0895813009F093C081E3D1CFE4
S11301900895623059F4811103C082E3A9CF089510
S11301A0813009F086C082E3C4CF0895633059F4E6
S11301B0811103C083E39CCF0895813009F079C095
S11301C083E3B7CF0895643059F4811103C084E305
S11301D08FCF0895813009F06CC084E3AACF0895CD
S11301E0653059F4811103C085E382CF08958130CD
S11301F009F05FC085E39DCF0895663059F48111FD
S113020003C086E375CF0895813009F052C086E3B8
S113021090CF0895673059F4811103C087E368CF04
S11302200895813009F045C087E383CF089568308D
S113023059F4811103C088E35BCF0895813009F03C
S113024038C088E376CF0895693051F4811103C032
S113025089E34ECF0895813061F589E36ACF08952B
S11302606A3061F4811104C080E091E045CF0895C3
S11302708130F9F480E091E064CF08956B3061F44B
S1130280811104C083E091E037CF0895813089F46F
S113029083E091E056CF08956C3059F4811104C085
S11302A086E091E029CF0895813019F486E091E049
S11302B048CF08950F931F93CF93DF9389E091E084
S11302C01BDF80916F038823E9F0CCEAD3E000E0E0
S11302D010E08B81811104C084E191E00DDF06C040
S11302E0688180E03CDF698180E039DF87E191E06B
S11302F003DF0F5F1F4F249680916F0390E0081770
S113030019073CF386E393E0F7DEDF91CF911F9169
S11303100F9108950F931F93CF93DF938BE191E097
S113032010DF809170038823E9F0C3E7D3E000E095
S113033010E08B81811104C084E191E002DF06C0EA
S1130340688181E00CDF698181E009DF87E191E068
S1130350F8DE0F5F1F4F24968091700390E008171A
S113036019073CF386E393E0ECDEDF91CF911F9114
S11303700F910895EBE9F0E080818823ECF78091F8
S11303809C0008952F923F925F926F927F928F927A
S11303909F92AF92BF92CF92DF92EF92FF920F9310
S11303A01F93CF93DF9387E690E099DE87E690E092
S11303B0B5DE8ADE0F2EFCEDEF2EF3E0FF2EF02DDE
S11303C0F70180E090E041E080FD0CC0DF01108285
S11303D09C01992314F42F5F3F4F3595279511966F
S11303E02C9319C09C0121703078332334F42150AC
S11303F031092E6F3F6F2F5F3F4F2130310559F484
S1130400DF0140839C01992314F42F5F3F4F3595FE
S1130410279511962C931282138201963496883173
S1130420910591F6E3E7F3E08FEF8483858391E010
S113043096831782ECEAF3E08483858382E08683E3
S1130440178266246394712C08E110E09924939434
S11304506894882481F80F2EFCE3AF2EF4E0BF2EBD
S1130460F02D0F2EFFE0CF2ED12CF02D592C0F2E76
S1130470F3E02F2E312CF02D8091710390917203B3
S1130480892B81F486E291E037DE89E391E059DE3D
S113049041DE8093A303893529F47092720360923C
S11304A0710306C080917103909172030197B9F4AE
S11304B080E591E021DE86E291E043DE5BDF80931C
S11304C0A303893531F482E090E090937203809322
S11304D0710387E691E010DE87E691E032DE8091D9
S11304E07103909172038230910509F0BFC01FC05F
S11304F082B794B5899FC0011124B801DBD48093DD
S1130500AB039927FC01EE0FFF1FEE0FFF1FE45210
S1130510FC4F328131110DC0880F991F880F991F2C
S1130520FC01E452FC4F92822F5F209370032091D0
S113053070032430E8F21FC082B794B5899FC001CC
S11305401124B801B7D48093AB039927FC01EE0FB3
S1130550FF1FEE0FFF1FE452FC4F328131110DC01B
S1130560880F991F880F991FFC01E452FC4F828267
S11305702F5F20936F0320916F032430E8F21092D1
S11305806E038BE191E0B8DDE7018A81813041F5AA
S1130590E0916E03F0E0EE0FFF1FEE0FFF1FED582A
S11305A0FC4F888139812A819B81682F8083318324
S11305B02283938380E0D3DDE0916E03F0E0EE0FBD
S11305C0FF1FEE0FFF1FED58FC4F618180E0C7DD78
S11305D087E191E091DD80916E038F5F80936E03DC
S11305E02496CA15DB0589F686E393E085DD10922F
S11305F06E0389E091E0A5DDE7018A81823041F54F
S1130600E0916E03F0E0EE0FFF1FEE0FFF1FE455C5
S1130610FC4F888139812A819B81682F80833183B3
S113062022839383892D9BDDE0916E03F0E0EE0F2E
S1130630FF1FEE0FFF1FE455FC4F6181892D8FDDF5
S113064087E191E07EDD80916E038F5F80936E037E
S11306502496CA15DB0589F686E393E072DD2ADE6B
S113066059DED0927203C092710302C00F97C9F48D
S113067087E691E041DD87E691E063DD85E991E07D
S11306803BDD82EB91E05DDD45DD8093A3038035A6
S113069021F4309272032092710310926D03109230
S11306A06C0380917103909172034097D9F487E6AB
S11306B091E022DD87E691E044DD85E991E041DDCA
S11306C084EC91E019DD56DE8093A303803531F488
S11306D084E090E0909372038093710310926D0311
S11306E010926C0380917103909172038330910591
S11306F009F0A7C0EEEDF3E02EE334E090E0808152
S1130700811101C09F5F3496E217F307C1F79093FC
S11307106E03992309F452C0809170038F5F809314
S11307206E0344C082B794B5899FC0011124B801F7
S1130730C1D38093AB039927FC01EE0FFF1FEE0F8B
S1130740FF1FE452FC4F4281411134C0880F991FAE
S1130750880F991FFC01E452FC4F92822F5F209373
S1130760700386ED91E0C8DCE091AB03F0E0EE0F9E
S1130770FF1FEE0FFF1FE452FC4F8081811104C064
S11307808FED91E0B9DC03C086EE91E0B5DCE09139
S1130790AB03F0E0EE0FFF1FEE0FFF1FE452FC4F20
S11307A0618180E0DCDC86E393E0A6DC20917003C9
S11307B030916E03231708F4B5CF03C08DEE91E09A
S11307C09BDC10926E038BE191E096DCE7018A8159
S11307D0813041F5E0916E03F0E0EE0FFF1FEE0F64
S11307E0FF1FED58FC4F888139812A819B81682F36
S11307F0808331832283938380E0B1DCE0916E03B4
S1130800F0E0EE0FFF1FEE0FFF1FED58FC4F61816C
S113081080E0A5DC87E191E06FDC80916E038F5F5F
S113082080936E032496CA15DB0589F686E393E06C
S113083063DC40DD85E090E0909372038093710364
S1130840B1C0049709F0A7C0EEEDF3E02EE334E065
S113085090E08081811101C09F5F34962E173F077D
S1130860C1F790936E03992309F452C080916F03EA
S11308708F5F80936E0344C082B794B5899FC00193
S11308801124B80117D38093AB039927FC01EE0F11
S1130890FF1FEE0FFF1FE452FC4F4281411134C091
S11308A0880F991F880F991FFC01E452FC4F828224
S11308B02F5F20936F0386ED91E043DCE091AB035F
S11308C0F0E0EE0FFF1FEE0FFF1FE452FC4F80819C
S11308D0811104C08FED91E034DC03C086EE91E019
S11308E030DCE091AB03F0E0EE0FFF1FEE0FFF1FD3
S11308F0E452FC4F6181892D32DC86E393E021DCF4
S113090020916F0330916E03231708F4B5CF03C011
S11309108DEE91E016DC10926E0389E091E011DC1B
S1130920E7018A81823041F5E0916E03F0E0EE0F39
S1130930FF1FEE0FFF1FE455FC4F888139812A8188
S11309409B81682F8083318322839383892D07DCE5
S1130950E0916E03F0E0EE0FFF1FEE0FFF1FE45572
S1130960FC4F6181892DFBDB87E191E0EADB80911B
S11309706E038F5F80936E032496CA15DB0589F698
S113098086E393E0DEDBC6DC8AE090E090937203BA
S1130990809371036BC080917103909172030597EA
S11309A009F03DC080916D03811104C089E092E09B
S11309B0A3DB05C0813019F480E292E09DDB88E47A
S11309C092E0BFDBA7DB8093A30392DB9091A303A8
S11309D080ED890F8A3068F48093A40326E030E028
S11309E0309372032093710380916D038130E9F495
S11309F049C280916D03813091F4903581F486E38E
S1130A0093E07ADB89E692E077DB82E792E099DB98
S1130A1080E190E0909372038093710342C08091CF
S1130A20710390917203069709F510926D0372DBBE
S1130A308093A3035DDB86E393E05EDB8091A303F5
S1130A4080538A3098F4E4EAF3E081839081990F2B
S1130A50292F220F220F920F890F8150828387E062
S1130A6090E0909372038093710306C080917103A8
S1130A70909172030797A9F484E992E03DDB4ADB85
S1130A808093A30335DB8091A30380538A3048F419
S1130A908093A70388E090E090937203809371039E
S1130AA006C080917103909172030897F1F432DBD0
S1130AB08093A3031DDB86E393E01EDB8091A303F5
S1130AC080538A3090F4E7EAF3E081839081990FB0
S1130AD0292F220F220F920F890F828389E090E041
S1130AE0909372038093710308C080917103909175
S1130AF072038930910509F085C0E091A603F0E006
S1130B00EE0FFF1FEE0FFF1FE455FC4F8181809312
S1130B106E039091A90389136BC08FE992E0ECDA1C
S1130B2089EA92E00EDBE091A603F0E0EE0FFF1FEE
S1130B30EE0FFF1FE455FC4F8081811104C08FED3F
S1130B4091E0FFDA03C086EE91E0FBDAC4EAD3E079
S1130B50EA81F0E0EE0FFF1FEE0FFF1FE455FC4F9C
S1130B606181892DFCDA86E393E0EBDACA81D0E077
S1130B70FE01EE0FFF1FEE0FFF1FE455FC4F9382A3
S1130B809181F701CC0FDD1FCC0FDD1FC455DC4F65
S1130B908181891305C020818881281301C0938233
S1130BA03496EA15FB05A1F785DB50926D03EFEA55
S1130BB0F3E02FED33E090E08081813009F49F5F12
S1130BC03496E217F307C1F790936E0380916F0395
S1130BD0981307C08EE190E09093720380937103A1
S1130BE070C085E090E0909372038093710369C0B4
S1130BF08CEB92E081DA80E190E090937203809331
S1130C0071035FC00A9709F037C080916C038111AA
S1130C1004C089E092E095DA05C0813019F480E2DD
S1130C2092E08FDA84EC92E067DAA4DB8093A3038A
S1130C3080DA9091A30380ED890F8A3040F4809389
S1130C40A4032BE030E0309372032093710380916E
S1130C506C03813079F4903569F486E393E071DABA
S1130C6089E692E06EDA85EE92E046DAD09272037B
S1130C70C092710310926C0380917103909172037E
S1130C800B97F9F477DB8093A30353DA86E393E0BD
S1130C9058DA8091A30380538A3098F4E4EAF3E0AD
S1130CA081839081990F292F220F220F920F890F90
S1130CB0815082838CE090E090937203809371035F
S1130CC006C080917103909172030C97A9F484E992
S1130CD092E037DA4FDB8093A3032BDA8091A303EE
S1130CE080538A3048F48093A7038DE090E090937A
S1130CF072038093710306C0809171039091720313
S1130D000D97F1F437DB8093A30313DA86E393E0C2
S1130D1018DA8091A30380538A3090F4E7EAF3E071
S1130D2081839081990F292F220F220F920F890F0F
S1130D3082838EE090E0909372038093710308C0E5
S1130D4080917103909172038E30910509F086C0F1
S1130D50E091A603F0E0EE0FFF1FEE0FFF1FED582A
S1130D60FC4F818180936E039091A90389136BC01A
S1130D708FE992E0E6D989EA92E0BED9E091A60330
S1130D80F0E0EE0FFF1FEE0FFF1FED58FC4F8081C8
S1130D90811104C08FED91E0AFD903C086EE91E0DC
S1130DA0ABD9C4EAD3E0EA81F0E0EE0FFF1FEE0F07
S1130DB0FF1FED58FC4F618180E0D1D986E393E0B9
S1130DC09BD9CA81D0E0FE01EE0FFF1FEE0FFF1F7B
S1130DD0ED58FC4F93829181F701CC0FDD1FCC0FAE
S1130DE0DD1FCD58DC4F8181891305C020818881A6
S1130DF0281301C093823496EA15FB05A1F78ADA19
S1130E0050926C03E6E7F3E026EA33E090E0808159
S1130E10813009F49F5F3496E217F307C1F790938A
S1130E206E0380917003981307C08FE190E0909354
S1130E307203809371031FC08AE090E09093720361
S1130E408093710319CB8CEB92E07BD982EB91E018
S1130E5078D9D0927203C09271030ECB8E31910572
S1130E6039F487E093E048D987E093E06AD90EC06B
S1130E704F9709F001CB89E393E03ED989E393E0EE
S1130E8060D904C0903509F0D0CDB9CD80E090E0B0
S1130E90DF91CF911F910F91FF90EF90DF90CF9052
S1130EA0BF90AF909F908F907F906F905F903F9096
S1130EB02F90089597FB072E16F4009406D077FD23
S1130EC008D00BD007FC05D03EF4909581959F4F38
S1130ED00895709561957F4F0895AA1BBB1B51E13E
S1130EE007C0AA1FBB1FA617B70710F0A61BB70B96
S1130EF0881F991F5A95A9F780959095BC01CD013B
S1090F000895F894FFCFF0
S1130F063130003131003132005032204465636B98
S1130F16203A2000585800202020005031204465F3
S1130F26636B203A20005072657373205920746FE6
S1130F362053746172740D0A0057616974696E678F
S1130F4620666F7220506C6179657220310D0A003B
S1130F5657616974696E6720666F7220506C617997
S1130F66657220320D0A002D2D2D2D2D2D2D2D2DA2
S1130F762D2D2D2D2D2D2D2D2D2D2D2D2D2D2D2D97
S1130F862D2D2D2D2D2D2D2D2D2D2D2D2D2D2D2D87
S1130F962D2D0D0A005072657373205020746F2036
S1130FA6537461727420596F7572205475726E0D84
S1130FB60A00506C6179657220312773205475726A
S1130FC66E0D0A00506C61796572203227732054C5
S1130FD675726E0D0A00596F75206765742000429C
S1130FE66C61636B200057686974652000546865FA
S1130FF67265206973206E6F2063617264206F6E60
S1131006206669656C640D0A0043686F6F7365201A
S11310164361726420746F204F70656E203A20001D
S113102643686F6F7365204361726420746F204F49
S113103670656E2C205072657373205020746F2077
S113104650617373203A2000506C617965722031C7
S113105620697320636865636B696E6720796F75B1
S11310667220636172640D0A005061737365640DC6
S11310760A00506C61796572203120506173736582
S1131086642C204974277320796F757220747572E5
S11310966E0D0A004E756D6265723F203A2000435C
S11310A66F72726563740D0A00506C617965722003
S11310B6312067657420796F7572200057726F6EE0
S11310C6670D0A00506C61796572203220697320BD
S11310D6636865636B696E6720796F7572206361F7
S11310E672640D0A00506C61796572203220506179
S11310F6737365642C204974277320796F75722085
S11311067475726E0D0A002A2A2A2A2A2A2A20505F
S1131116312057696E202A2A2A2A2A2A2A0D0A2ABF
S11311262A2A2A2A2A2A205032204C6F7365202A1A
S11311362A2A2A2A2A2A0D0A002A2A2A2A2A2A2A6C
S11311462050322057696E202A2A2A2A2A2A2A0D52
S11311560A2A2A2A2A2A2A2A205032204C6F736500
S10F1166202A2A2A2A2A2A2A0D0A00001C
S9030000FC
