S019000047616D655F446156696E63695F436F64652E73726563BA
S113000045C0000061C000005FC000005DC000008A
S11300105BC0000059C0000057C0000055C000007C
S113002053C0000051C000004FC000004DC000008C
S11300304BC0000049C0000047C0000045C000009C
S113004043C0000041C000003FC000003DC00000AC
S11300503BC0000039C0000037C0000035C00000BC
S113006033C0000031C000002FC000002DC00000CC
S11300702BC0000029C0000027C0000025C00000DC
S113008023C0000021C000001FC0000011241FBEB7
S1130090CFEFD0E1DEBFCDBF14E0A0E0B1E0E2E3FA
S11300A0F3E100E00BBF02C007900D92A238B10744
S11300B0D9F725E0A2E8B4E001C01D92A235B20749
S11300C0E1F795D30C9497099BCF81E083BF87BF59
S11300D012BE83E085BD80E487BF8DE584BD0895AD
S11300E09093900089B988E18AB986E0809395005D
S11300F008955D9BFECF8CB90895CF93DF93EC01F7
S11301008881882329F02196F4DF89918111FCCF1D
S1130110DF91CF9108955F9BFECF8CB108959093AA
S113012098008093990088E180939A0086E08093F8
S11301309D000895EBE9F0E0908195FFFDCF809359
S11301409C000895CF93DF93EC018881882329F0E4
S11301502196F0DF89918111FCCFDF91CF91089531
S113016061110DC0811104C080E091E0C6CF0895F3
S1130170813009F0B3C080E091E0E4CF08956130AC
S113018069F4811104C083E091E0B7CF0895813010
S113019009F0A4C083E091E0D5CF0895623069F4FA
S11301A0811104C086E091E0A8CF0895813009F060
S11301B095C086E091E0C6CF0895633069F481115B
S11301C004C089E091E099CF0895813009F086C098
S11301D089E091E0B7CF0895643069F4811104C0D7
S11301E08CE091E08ACF0895813009F077C08CE0EB
S11301F091E0A8CF0895653069F4811104C08FE0BF
S113020091E07BCF0895813009F068C08FE091E0E0
S113021099CF0895663069F4811104C082E191E0B8
S11302206CCF0895813009F059C082E191E08ACF02
S11302300895673069F4811104C085E191E05DCFD0
S11302400895813009F04AC085E191E07BCF08959B
S1130250683069F4811104C088E191E04ECF0895BB
S1130260813009F03BC088E191E06CCF089569309A
S113027061F4811104C08BE191E03FCF0895813096
S113028069F58BE191E05ECF08956A3061F48111E4
S113029004C08EE191E031CF08958130F9F48EE10C
S11302A091E050CF08956B3061F4811104C081E274
S11302B091E023CF0895813089F481E291E042CF27
S11302C008956C3059F4811104C084E291E015CF93
S11302D00895813019F484E291E034CF08950F93A6
S11302E01F93CF93DF9387E291E007DF8091860429
S11302F0882399F0C1E0D0E083E391E0FEDE6C2F27
S113030080E02EDF85E391E0F8DE9E012196809166
S1130310860490E0281739077CF38BE791E0EDDE43
S113032080918604882361F0C0E0D0E087E391E007
S1130330E4DE21968091860490E0C817D907B4F3CF
S11303408BE791E0DADE809186048823D9F009E80E
S113035014E0C0E0D0E08EE391E0CFDEF8018081CC
S1130360811104C082E491E0C8DE03C086E491E018
S1130370C4DE21960C5F1F4F8091860490E0C8175D
S1130380D9074CF38BE791E0B8DE8091860488238B
S1130390B9F00AE814E0C0E0D0E08AE491E0ADDE10
S11303A0F801608180E0DCDE83E491E0A6DE219642
S11303B00C5F1F4F8091860490E0C817D9076CF337
S11303C08BE791E09ADE809186048823D9F00CE8CB
S11303D014E0C0E0D0E08EE391E08FDEF80180818C
S11303E0811104C08DE491E088DE03C081E591E0D1
S11303F084DE21960C5F1F4F8091860490E0C8171D
S1130400D9074CF38BE791E078DE8091860488234A
S113041061F0C0E0D0E087E391E06FDE2196809147
S1130420860490E0C817D907B4F38BE791E065DE42
S1130430DF91CF911F910F9108950F931F93CF9345
S1130440DF9385E591E059DE80918504882399F056
S1130450C1E0D0E083E391E050DE6C2F80E080DEE9
S113046085E391E04ADE9E0121968091850490E027
S1130470281739077CF38BE791E03FDE80918504F0
S1130480882361F0C0E0D0E087E391E036DE219676
S11304908091850490E0C817D907B4F38BE791E005
S11304A02CDE809185048823D9F002EC14E0C0E0AE
S11304B0D0E08EE391E021DEF8018081811104C057
S11304C082E491E01ADE03C086E491E016DE219610
S11304D00C5F1F4F8091850490E0C817D9074CF337
S11304E08BE791E00ADE809185048823E9F0C3EC70
S11304F0D4E000E010E08AE491E0FFDD8A8181111C
S113050004C082E691E0F9DD03C0688180E028DE62
S113051083E491E0F2DD0F5F1F4F24968091850400
S113052090E0081719073CF38BE791E0E6DD809132
S11305308504882361F0C0E0D0E087E391E0DDDD4D
S113054021968091850490E0C817D907B4F38BE70E
S113055091E0D3DDDF91CF911F910F9108950F9317
S11305601F93CF93DF9385E691E0ECDD80918504C2
S1130570882399F0C1E0D0E083E391E0E3DD6C2FC0
S113058081E0EEDD85E391E0DDDD9E012196809141
S1130590850490E0281739077CF38BE791E0D2DDDE
S11305A080918504882361F0C0E0D0E087E391E086
S11305B0C9DD21968091850490E0C817D907B4F36A
S11305C08BE791E0BFDD809185048823D9F002ECAC
S11305D014E0C0E0D0E08EE391E0B4DDF801808166
S11305E0811104C082E491E0ADDD03C086E491E0B2
S11305F0A9DD21960C5F1F4F8091850490E0C817F8
S1130600D9074CF38BE791E09DDD80918504882325
S1130610B9F003EC14E0C0E0D0E08AE491E092DDAC
S1130620F801608181E09CDD83E491E08BDD21961B
S11306300C5F1F4F8091850490E0C817D9076CF3B5
S11306408BE791E07FDD809185048823D9F005EC68
S113065014E0C0E0D0E08EE391E074DDF801808125
S1130660811104C08DE491E06DDD03C081E591E06A
S113067069DD21960C5F1F4F8091850490E0C817B7
S1130680D9074CF38BE791E05DDD809185048823E5
S113069061F0C0E0D0E087E391E054DD21968091E1
S11306A0850490E0C817D907B4F38BE791E04ADDDD
S11306B0DF91CF911F910F9108950F931F93CF93C3
S11306C0DF9381E791E03EDD80918604882399F0F1
S11306D0C1E0D0E083E391E035DD6C2F81E040DDC3
S11306E085E391E02FDD9E0121968091860490E0C0
S11306F0281739077CF38BE791E024DD8091860489
S1130700882361F0C0E0D0E087E391E01BDD21960F
S11307108091860490E0C817D907B4F38BE791E081
S113072011DD809186048823D9F009E814E0C0E043
S1130730D0E08EE391E006DDF8018081811104C0F0
S113074082E491E0FFDC03C086E491E0FBDC2196C7
S11307500C5F1F4F8091860490E0C817D9074CF3B3
S11307608BE791E0EFDC809186048823E9F0CAE806
S1130770D4E000E010E08AE491E0E4DC8A818111B5
S113078004C082E691E0DEDC03C0688181E0E8DC3D
S113079083E491E0D7DC0F5F1F4F24968091860499
S11307A090E0081719073CF38BE791E0CBDC8091CC
S11307B08604882361F0C0E0D0E087E391E0C2DCE6
S11307C021968091860490E0C817D907B4F38BE78B
S11307D091E0B8DCDF91CF911F910F910895EBE97F
S11307E0F0E080818823ECF780919C0008952F929B
S11307F03F924F925F926F927F928F929F92AF92AD
S1130800BF92CF92DF92EF92FF920F931F93CF93F9
S1130810DF931F92CDB7DEB787E690E061DC87E611
S113082090E07DDC52DC02EF14E0F80180E090E01F
S113083041E080FD0CC0DF0110829C01992314F477
S11308402F5F3F4F3595279511962C9319C09C0126
S113085021703078332334F4215031092E6F3F6FE7
S11308602F5F3F4F2130310559F4DF0140839C0154
S1130870992314F42F5F3F4F3595279511962C93A8
S113088012821382019634968831910591F6E9E833
S1130890F4E08FEF8483858391E096831782E2EC02
S11308A0F4E08483858382E086831782CC24C39416
S11308B0D12C0F2EF8E16F2EF02D712C6982A72C0C
S11308C0552453946894442441F80F2EFAE0EF2EF3
S11308D0F12CF02DB52C0F2EFBE02F2E312CF02D0A
S11308E08091870490918804892B81F48EE791E0AC
S11308F004DC81E991E026DC0EDC8093B9048033CA
S113090029F4D0928804C092870406C08091870499
S1130910909188040197B9F488EA91E0EEDB8EE7C0
S113092091E010DC5CDF8093B904803331F482E021
S113093090E090938804809387048FEB91E0DDDB53
S11309408FEB91E0FFDB80918704909188048230E3
S1130950910509F09BC020C082B794B5899FC0015E
S11309601124662D772DBCD48093C1049927FC01F2
S1130970EE0FFF1FEE0FFF1FEE50FB4F32813111C0
S11309800DC0880F991F880F991FFC01EE50FB4F73
S113099052822F5F20938604209186042430E0F253
S11309A020C082B794B5899FC0011124662D772D8C
S11309B097D48093C1049927FC01EE0FFF1FEE0F1B
S11309C0FF1FEE50FB4F328131110DC0880F991F6C
S11309D0880F991FFC01EE50FB4F42822F5F20933A
S11309E08504209185042430E0F210928404F801F7
S11309F082818130B1F480918404A82FB0E0AA0FE1
S1130A00BB1FAA0FBB1FA757BB4F408151816281F7
S1130A1073814D935D936D937C9313978F5F809354
S1130A208404349695E0E235F90711F758DC8BE736
S1130A3091E063DB10928404F80182818230B1F486
S1130A4080918404A82FB0E0AA0FBB1FAA0FBB1F7C
S1130A50AE53BB4F40815181628173814D935D934D
S1130A606D937C9313978F5F809384043496A5E0F1
S1130A70E235FA0711F773DD8BE791E063DBDDDC28
S1130A801CDEF0928804E092870402C00A97C9F43D
S1130A908FEB91E032DB8FEB91E054DB86E092E068
S1130AA02CDB83E292E04EDB36DB8093B9048033A7
S1130AB021F43092880420928704109283041092C7
S1130AC0820480918704909188048B30910509F009
S1130AD092C0E4EFF4E024E535E090E080818111F8
S1130AE001C09F5F3496E217F307C1F79093840423
S1130AF0992309F453C0809186048F5F8093840402
S1130B0045C082B794B5899FC0011124662D772D05
S1130B10E7D38093C1049927FC01EE0FFF1FEE0F6A
S1130B20FF1FEE50FB4F4281411134C0880F991FC3
S1130B30880F991FFC01EE50FB4F52822F5F2093C8
S1130B40860485E392E0D9DAE091C104F0E0EE0F87
S1130B50FF1FEE0FFF1FEE50FB4F8081811104C079
S1130B608EE392E0CADA03C085E492E0C6DAE0914B
S1130B70C104F0E0EE0FFF1FEE0FFF1FEE50FB4F1E
S1130B80618180E0EDDA8BE791E0B7DA20918604A9
S1130B9030918404231708F4B4CF03C08CE492E0AA
S1130BA0ACDA10928404F80182818130B1F480912E
S1130BB08404A82FB0E0AA0FBB1FAA0FBB1FA7571E
S1130BC0BB4F40815181628173814D935D936D93DD
S1130BD07C9313978F5F809384043496B5E0E23559
S1130BE0FB0711F77CDB29DC8CE090E09093880410
S1130BF08093870403C00C9709F03DC0809183045F
S1130C00811104C088E692E078DA05C0813019F4D5
S1130C108FE792E072DA87EA92E094DA7CDA8093E2
S1130C20B90467DA9091B90480ED890F8A3068F4C9
S1130C308093BA042DE030E0309388042093870435
S1130C40809183048130E9F431C38091830481303D
S1130C5091F4903781F48BE791E04FDA8BEC92E0DA
S1130C604CDA84ED92E06EDA84E190E090938804AB
S1130C708093870442C080918704909188040D97E3
S1130C8009F51092830447DA8093B90432DA8BE7CA
S1130C9091E033DA8091B90480538A3098F4EAEB16
S1130CA0F4E081839081990F292F220F220F920F54
S1130CB0890F815082838EE090E090938804809322
S1130CC0870406C080918704909188040E97A9F444
S1130CD086EF92E012DA1FDA8093B9040ADA80917F
S1130CE0B90480538A3048F48093BD048FE090E0C7
S1130CF0909388048093870406C080918704909120
S1130D0088040F97F1F407DA8093B904F2D98BE7DA
S1130D1091E0F3D98091B90480538A3090F4EDEBDB
S1130D20F4E081839081990F292F220F220F920FD3
S1130D30890F828380E190E09093880480938704F4
S1130D4007C08091870490918804409709F092C06D
S1130D50E091BC04F0E0EE0FFF1FEE0FFF1FEE5317
S1130D60FB4F8181809384049091BF04891375C0E3
S1130D7081E093E0C2D98BE093E0E4D9E091BC0434
S1130D80F0E0EE0FFF1FEE0FFF1FEE53FB4F8081CD
S1130D90811104C08EE392E0D5D903C085E492E0CA
S1130DA0D1D90F2EFAEB8F2EF4E09F2EF02DD40123
S1130DB01296EC91F0E0EE0FFF1FEE0FFF1FEE53C3
S1130DC0FB4F6181852DCCD98BE791E0BBD9F40130
S1130DD0228130E0F901EE0FFF1FEE0FFF1FEE53EB
S1130DE0FB4F53829181F801220F331F220F331FCF
S1130DF02E533B4F8181891306C04081D9018C91C8
S1130E00481301C053823496B5E0E235FB0791F7ED
S1130E10B0928304E5ECF4E025EF34E090E08081C7
S1130E20813009F49F5F3496E217F307C1F790937A
S1130E30840480918504981307C081E190E0909325
S1130E408804809387041DC08CE090E0909388040C
S1130E508093870444DAF1DA0DC08EE193E04DD932
S1130E6086E293E06FD984E190E0909388048093C4
S1130E70870416C08091870490918804813191057C
S1130E8069F48FEB91E039D98FEB91E05BD980E580
S1130E9093E033D980E593E055D90CC24497D9F453
S1130EA08FEB91E02AD98FEB91E04CD986E092E068
S1130EB049D98EE993E021D992DC8093B904803337
S1130EC031F4E5E1F0E0F0938804E09387041092B4
S1130ED08304109282048091870490918804853160
S1130EE0910509F092C0E4EFF4E024E535E090E0E8
S1130EF08081811101C09F5F3496E217F307C1F727
S1130F0090938404992309F453C0809185048F5FDE
S1130F108093840445C082B794B5899FC00111248D
S1130F20662D772DDDD18093C1049927FC01EE0F46
S1130F30FF1FEE0FFF1FEE50FB4F4281411134C0E3
S1130F40880F991F880F991FFC01EE50FB4F4282B6
S1130F502F5F2093850485E392E0F4D8E091C104E7
S1130F60F0E0EE0FFF1FEE0FFF1FEE50FB4F8081EE
S1130F70811104C08EE392E0E5D803C085E492E0D9
S1130F80E1D8E091C104F0E0EE0FFF1FEE0FFF1F68
S1130F90EE50FB4F6181852DE3D88BE791E0D2D8E9
S1130FA02091850430918404231708F4B4CF03C03E
S1130FB08CE492E0C7D810928404F80182818230D4
S1130FC0B1F480918404A82FB0E0AA0FBB1FAA0F2C
S1130FD0BB1FAE53BB4F40815181628173814D93DE
S1130FE05D936D937C9313978F5F80938404349601
S1130FF085E0E235F80711F7B2DA5FDB86E190E0CD
S1131000909388048093870403C0469709F037C0FF
S113101080918204811104C088E692E093D805C0CF
S1131020813019F48FE792E08DD880EB93E065D896
S1131030D6DB8093B9047ED89091B90480ED890FF2
S11310408A3040F48093BA0427E130E03093880476
S11310502093870480918204813079F4903769F475
S11310608BE791E06FD88BEC92E06CD884ED93E041
S113107044D8F0928804E09287041092820480910C
S11310808704909188044797F1F4A9DB8093B9040D
S113109051D88BE791E056D88091B90480538A30B7
S11310A090F4EAEBF4E081839081990F292F220FC9
S11310B0220F920F890F8150828399819093870424
S11310C0A092880406C08091870490918804489770
S11310D0A9F486EF92E036D882DB8093B9042AD84B
S11310E08091B90480538A3048F48093BD0489E127
S11310F090E0909388048093870406C080918704CD
S1131100909188044997F1F46ADB8093B90412D86A
S11311108BE791E017D88091B90480538A3090F41A
S1131120EDEBF4E081839081990F292F220F220F98
S1131130920F890F82838AE190E0909388048093D0
S1131140870408C080918704909188048A319105AE
S113115009F098C0E091BC04F0E0EE0FFF1FEE0F21
S1131160FF1FE757FB4F8181809384049091BF0454
S113117089137BC081E093E00E94A20086EF93E094
S11311800E947D00E091BC04F0E0EE0FFF1FEE0F23
S1131190FF1FE757FB4F8081811105C08EE392E06A
S11311A00E947D0004C085E492E00E947D000F2E21
S11311B0FAEB8F2EF4E09F2EF02DD4011296EC91D1
S11311C0F0E0EE0FFF1FEE0FFF1FE757FB4F6181AB
S11311D080E00E94B0008BE791E00E947D00F40162
S11311E0228130E0F901EE0FFF1FEE0FFF1FE757DA
S11311F0FB4F53829181F801220F331F220F331FBB
S113120027573B4F8181891306C04081D9018C91B6
S1131210481301C053823496B5E0E235FB0791F7D9
S1131220B0928204ECE8F4E02CEB34E090E08081AE
S1131230813009F49F5F3496E217F307C1F7909366
S1131240840480918604981307C08BE190E0909306
S113125088048093870419C082D92FDA86E190E04C
S113126090938804809387043BCB8EE193E00E94A3
S1131270A20089E094E00E947D00F0928804E0924C
S113128087042ECB4B9709F02BCB8FEB91E00E9478
S11312907D008FEB91E00E94A20083E394E00E9422
S11312A07D0083E394E00E94A20004C0903709F01B
S11312B0E8CCD1CC80E090E00F90DF91CF911F91EA
S11312C00F91FF90EF90DF90CF90BF90AF909F90E1
S11312D08F907F906F905F904F903F902F900895E4
S11312E097FB072E16F4009406D077FD08D00BD098
S11312F007FC05D03EF4909581959F4F0895709515
S113130061957F4F0895AA1BBB1B51E107C0AA1F1B
S1131310BB1FA617B70710F0A61BB70B881F991F92
S11313205A95A9F780959095BC01CD010895F8943C
S1051330FFCFE9
S1131332303000303100303200303300303400308D
S11313423500303600303700303800303900313063
S1131352003131003132005031204465636B203A50
S11313620D0A00202020007C2D2D2D2D7C007C20B8
S1131372200042207C0057207C007C20004F207CEF
S11313820058207C005032204465636B203A200DC3
S11313920A005858005032204465636B203A0D0A03
S11313A2005031204465636B203A200D0A005072CC
S11313B2657373203020746F2073746172740D0A24
S11313C20057616974696E6720666F7220506C61A0
S11313D279657220310D0A0057616974696E67205C
S11313E2666F7220506C6179657220320D0A002D8D
S11313F22D2D2D2D2D2D2D2D2D2D2D2D2D2D2D2D17
S11314022D2D2D2D2D2D2D2D2D2D2D2D2D2D2D2D06
S11314122D2D2D2D2D2D2D2D2D2D2D2D2D2D2D2DF6
S11314222D2D2D2D2D2D2D2D2D2D2D2D2D2D2D2DE6
S11314322D2D2D0D0A005072657373203020746FA8
S113144220737461727420796F7572207475726E70
S11314520D0A00506C61796572203127732074750E
S1131462726E0D0A00596F75206765742000426C14
S113147261636B2000576869746520005468657263
S113148265206973206E6F2063617264206F6E2021
S11314926669656C640D0A0043686F6F7365206347
S11314A261726420746F206F70656E203A2000436D
S11314B2686F6F7365206361726420746F206F704C
S11314C2656E2C205072657373207020746F2070C7
S11314D2617373203A2000506C6179657220312067
S11314E2697320636865636B696E6720796F7572CF
S11314F220636172642E2E2E0D0A0050617373658F
S1131502640D0A00506C6179657220312070617338
S11315127365642C204974277320796F7572207463
S113152275726E0D0A004E756D6265723F203A2027
S113153200436F72726563740D0A00506C617965C1
S11315427220312067657420796F7572200057729A
S11315526F6E670D0A00506C6179657220312067E5
S113156265742077726F6E6720636172642C204900
S113157274277320796F7572207475726E0D0A0068
S11315822A2A2A2A2A2A2A2A2A2A2A2A2A2A205099
S1131592312057696E202A2A2A2A2A2A2A2A2A2A02
S11315A22A2A2A2A0D0A2A2A2A2A2A2A2A2A2A2AD2
S11315B22A2A2A2A205032204C6F7365202A2A2A8A
S11315C22A2A2A2A2A2A2A2A2A2A2A0D0A00506C74
S11315D26179657220322773207475726E0D0A0068
S11315E2506C617965722032206973206368656387
S11315F26B696E6720796F757220636172642E2E37
S11316022E0D0A00506C617965722032207061736C
S11316127365642C204974277320796F7572207462
S113162275726E0D0A00506C617965722032206702
S1131632657420796F75722000506C61796572202F
S113164232206765742077726F6E672063617264FB
S11316522C204974277320796F7572207475726E09
S11316620D0A002A2A2A2A2A2A2A2A2A2A2A2A2A3B
S11316722A2050322057696E202A2A2A2A2A2A2A04
S11316822A2A2A2A2A2A2A0D0A2A2A2A2A2A2A2AF1
S11316922A2A2A2A2A2A2A205031204C6F736520AA
S11316A22A2A2A2A2A2A2A2A2A2A2A2A2A2A0D0AD1
S10516B2000032
S9030000FC
