S019000047616D655F446156696E63695F436F64652E73726563BA
S113000045C0000060C000005EC000005CC000008D
S11300105AC0000058C0000056C0000054C0000080
S113002052C0000050C000004EC000004CC0000090
S11300304AC0000048C0000046C0000044C00000A0
S113004042C0000040C000003EC000003CC00000B0
S11300503AC0000038C0000036C0000034C00000C0
S113006032C0000030C000002EC000002CC00000D0
S11300702AC0000028C0000026C0000024C00000E0
S113008022C0000020C000001EC0000011241FBEBA
S1130090CFEFD0E1DEBFCDBF11E0A0E0B1E0E6E3F9
S11300A0F5E000E00BBF02C007900D92A835B10740
S11300B0D9F721E0A8E5B1E001C01D92AA35B20745
S11300C0E1F7FBD036C29CCF84E083BF81E087BFD9
S11300D012BE08959093900089B988E18AB986E0A8
S11300E08093950008955D9BFECF8CB90895CF93BE
S11300F0DF93EC018881882329F02196F4DF89912C
S11301008111FCCFDF91CF9108955F9BFECF8CB11D
S11301100895909398008093990088E180939A00C1
S113012086E080939D000895EBE9F0E0908195FFCF
S1130130FDCF80939C00089561110BC0811103C011
S113014080E3D1CF0895813009F0A0C080E3ECCFE3
S11301500895613059F4811103C081E3C4CF089537
S1130160813009F093C081E3DFCF0895623059F400
S1130170811103C082E3B7CF0895813009F086C0AE
S113018082E3D2CF0895633059F4811103C083E32D
S1130190AACF0895813009F079C083E3C5CF0895CB
S11301A0643059F4811103C084E39DCF08958130F4
S11301B009F06CC084E3B8CF0895653059F4811117
S11301C003C085E390CF0895813009F05FC085E3D3
S11301D0ABCF0895663059F4811103C086E383CF11
S11301E00895813009F052C086E39ECF08956730A8
S11301F059F4811103C087E376CF0895813009F063
S113020045C087E391CF0895683059F4811103C044
S113021088E369CF0895813009F038C088E384CF3A
S11302200895693051F4811103C089E35CCF0895C6
S1130230813061F589E378CF08956A3061F48111E2
S113024004C080E091E053CF08958130F9F480E058
S113025091E04DCF08956B3061F4811104C083E0C7
S113026091E045CF0895813089F483E091E03FCF58
S113027008956C3059F4811104C086E091E037CFC1
S11302800895813019F486E091E031CF0895CF9339
S1130290DF93EC018881882329F0219645DF899139
S11302A08111FCCFDF91CF910895EBE9F0E08081DB
S11302B08823ECF780919C000895CF93DF93CDB70A
S11302C0DEB7C856D1090FB6F894DEBF0FBECDBF56
S11302D087E690E0FFDE87E690E01BDFF5DEFE01B7
S11302E0319680E090E041E080FD0CC0DF01108297
S11302F09C01992314F42F5F3F4F35952795119650
S11303002C9319C09C0121703078332334F421508C
S113031031092E6F3F6F2F5F3F4F2130310559F464
S1130320DF0140839C01992314F42F5F3F4F3595DF
S1130330279511962C931282019634968A31910551
S113034099F6C12CD12C88248394912C6894AA24E6
S1130350A1F8B12C482C592C0FE41AE166246394BB
S11303606894772471F88091580190915901892BF0
S113037071F489E091E0BBDE8CE191E088DFC5DEB9
S1130380893529F4409258015092590106C0809150
S1130390580190915901019771F483E391E0A7DE2C
S11303A089E091E074DF81DF893529F4B092590145
S11303B0A092580106C0809158019091590102976A
S11303C091F68AE491E093DE36C082B7809F912D46
S11303D01124969596959695919F80191124E82E4F
S11303E0F12CE1E0F0E0EC0FFD1F94E0899FE00DBB
S11303F0F11D112482818111E8CFEE0CFF1CEE0C5B
S1130400FF1CE1E0F0E0EC0FFD1FEE0EFF1EF70114
S11304106282D394608170E080E090E08DDE84E5B8
S113042091E065DEF701618170E080E090E084DEB8
S113043084E591E05CDEF3E0FD1520F487E491E0CF
S113044056DE50C082B7809F912D112496959695C3
S11304509695919F80191124E82EF12CE1E0F0E0AB
S1130460EC0FFD1F94E0899FE00DF11D11248281A2
S1130470882309F4C2CFA9CF82B7809F912D11247C
S1130480969596959695919F80191124E82EF12CB6
S1130490E1E0F0E0EC0FFD1F94E0899FE00DF11D19
S11304A0112482818111E8CFEE0CFF1CEE0CFF1C9D
S11304B0E1E0F0E0EC0FFD1FEE0EFF1EF70172828B
S11304C0C394608170E0882D992D36DE84E591E037
S11304D0DEDEF701618170E0882D992D2DDE84E543
S11304E091E0D5DEF3E0FC1550F487E491E0FFDD04
S11304F083E090E0909359018093580134CF82B700
S1130500809F912D1124969596959695919F80198B
S11305101124E82EF12CE1E0F0E0EC0FFD1F94E053
S1130520899FE00DF11D11248281882309F4BCCF39
S1090530A3CFF894FFCFF5
S11305363130003131003132005072657373205905
S113054620746F2053746172740D0A0057616974C4
S1130556696E6720666F7220506C6179657220310E
S11305660D0A0057616974696E6720666F722050C0
S11305766C6179657220300D0A00537461746520CC
S10B0586320D0A0020200000E0
S9030000FC
