:1000000045C0000060C000005EC000005CC0000091
:100010005AC0000058C0000056C0000054C0000084
:1000200052C0000050C000004EC000004CC0000094
:100030004AC0000048C0000046C0000044C00000A4
:1000400042C0000040C000003EC000003CC00000B4
:100050003AC0000038C0000036C0000034C00000C4
:1000600032C0000030C000002EC000002CC00000D4
:100070002AC0000028C0000026C0000024C00000E4
:1000800022C0000020C000001EC0000011241FBEBE
:10009000CFEFD0E1DEBFCDBF11E0A0E0B1E0E0EFF7
:1000A000FBE000E00BBF02C007900D92A03EB1073D
:1000B000D9F722E0A0EEB1E001C01D92A03BB2074B
:1000C000E1F75AD193C59CCF81E083BF87BF12BEB1
:1000D00008959093900089B988E18AB986E0809369
:1000E000950008955D9BFECF8CB90895CF93DF9363
:1000F000EC018881882329F02196F4DF8991811110
:10010000FCCFDF91CF9108955F9BFECF8CB1089516
:10011000909398008093990088E180939A0086E0FC
:1001200080939D000895EBE9F0E0908195FFFDCF6D
:1001300080939C000895CF93DF93EC0188818823FE
:1001400029F02196F0DF89918111FCCFDF91CF91C9
:10015000089561110BC0811103C080E3C3CF0895DE
:10016000813009F0A0C080E3DECF0895613059F4FA
:10017000811103C081E3B6CF0895813009F093C0A7
:1001800081E3D1CF0895623059F4811103C082E335
:10019000A9CF0895813009F086C082E3C4CF0895C5
:1001A000633059F4811103C083E39CCF08958130FB
:1001B00009F079C083E3B7CF0895643059F4811111
:1001C00003C084E38FCF0895813009F06CC084E3CD
:1001D000AACF0895653059F4811103C085E382CF19
:1001E0000895813009F05FC085E39DCF08956630A2
:1001F00059F4811103C086E375CF0895813009F069
:1002000052C086E390CF0895673059F4811103C03E
:1002100087E368CF0895813009F045C087E383CF35
:100220000895683059F4811103C088E35BCF0895C5
:10023000813009F038C088E376CF0895693051F4F1
:10024000811103C089E34ECF0895813061F589E3C0
:100250006ACF08956A3061F4811104C080E091E0B2
:1002600045CF08958130F9F480E091E064CF08959E
:100270006B3061F4811104C083E091E037CF0895C1
:10028000813089F483E091E056CF08956C3059F4C1
:10029000811104C086E091E029CF0895813019F4DE
:1002A00086E091E048CF08950F931F93CF93DF939B
:1002B00089E091E01BDF8091E3018823E9F0C0E24F
:1002C000D2E000E010E08B81811104C084E191E074
:1002D0000DDF06C0688180E03CDF698180E039DFA6
:1002E00087E191E003DF0F5F1F4F24968091E301C8
:1002F00090E0081719073CF38DE491E0F7DEDF91F9
:10030000CF911F910F9108950F931F93CF93DF9378
:100310008BE191E010DF8091E4018823E9F0C7EEE2
:10032000D1E000E010E08B81811104C084E191E014
:1003300002DF06C0688181E00CDF698181E009DFAE
:1003400087E191E0F8DE0F5F1F4F24968091E40172
:1003500090E0081719073CF38DE491E0ECDEDF91A3
:10036000CF911F910F910895EBE9F0E080818823F0
:10037000ECF780919C00089587E690E0AADE87E67E
:1003800090E0C6DEA1DE0F2EF0E54F2EF2E05F2EEC
:10039000F02DF20180E090E041E080FD0CC0DF0133
:1003A00010829C01992314F42F5F3F4F35952795B8
:1003B00011962C9319C09C0121703078332334F4AA
:1003C000215031092E6F3F6F2F5F3F4F2130310594
:1003D00059F4DF0140839C01992314F42F5F3F4FB0
:1003E0003595279511962C93128213820196349697
:1003F0008831910591F6E7EEF1E08FEF84838583F4
:10040000178282E086830F2EF8E1EF2EF2E0FF2EB6
:10041000F02D0BE112E00F2EF0EBAF2EF2E0BF2E2D
:10042000F02D0F2EFDE02F2E312CF02D0F2EF3E0AE
:10043000CF2ED12CF02D0F2EFAE06F2E712CF02D37
:100440000F2EFBEA8F2EF02D0F2EF8E19F2EF02DB0
:100450008091E5019091E601892B91F486E291E08B
:1004600045DE89E391E067DE4FDE80931702893530
:1004700039F481E090E09093E6018093E50106C0B5
:100480008091E5019091E601019791F480E591E07A
:100490002DDE86E291E04FDE67DF8093170289351B
:1004A00039F482E090E09093E6018093E50108C082
:1004B0008091E5019091E6018230910509F0C7C075
:1004C00031E022C092B7989D812D112482958F70C2
:1004D000899D9019112490931F02892F90E0FC01AF
:1004E000EE0FFF1FEE0FFF1FE05BFD4F428141113A
:1004F0000DC0880F991F880F991FFC01E05BFD4F0D
:1005000032832F5F2093E4012091E4012430D0F264
:1005100032E022C092B7989D812D112482958F7070
:10052000899D9019112490931F02892F90E0FC015E
:10053000EE0FFF1FEE0FFF1FE05BFD4F42814111E9
:100540000DC0880F991F880F991FFC01E05BFD4FBC
:1005500032832F5F2093E3012091E3012430D0F216
:100560001092E0018BE191E0C1DDE2018A818130EE
:1005700041F5E091E001F0E0EE0FFF1FEE0FFF1FED
:10058000E951FE4F888139812A819B81682F8083C0
:1005900031832283938380E0DCDDE091E001F0E0B1
:1005A000EE0FFF1FEE0FFF1FE951FE4F618180E04C
:1005B000D0DD87E191E09ADD8091E0018F5F80934B
:1005C000E0012496CA15DB0589F68DE491E08EDD05
:1005D0001092E00189E091E0AEDDE2018A81823093
:1005E00041F5E091E001F0E0EE0FFF1FEE0FFF1F7D
:1005F000E05EFD4F888139812A819B81682F80834D
:1006000031832283938381E0A4DDE091E001F0E077
:10061000EE0FFF1FEE0FFF1FE05EFD4F618181E0D7
:1006200098DD87E191E087DD8091E0018F5F809325
:10063000E0012496CA15DB0589F68DE491E07BDDA7
:1006400033DE62DED092E601C092E50104C0833061
:10065000910509F06DC03091E4013F5F3093E001F6
:1006600041E022C092B7989D812D112482958F7010
:10067000899D9019112490931F02892F90E0FC010D
:10068000EE0FFF1FEE0FFF1FE05BFD4F5281511178
:100690000DC0880F991F880F991FFC01E05BFD4F6B
:1006A00042832F5F2093E4012091E4012317D0F2CD
:1006B0001092E0018BE191E019DDE2018A81813045
:1006C00041F5E091E001F0E0EE0FFF1FEE0FFF1F9C
:1006D000E951FE4F888139812A819B81682F80836F
:1006E00031832283938380E034DDE091E001F0E008
:1006F000EE0FFF1FEE0FFF1FE951FE4F618180E0FB
:1007000028DD87E191E0F2DC8091E0018F5F80934A
:10071000E0012496CA15DB0589F68DE491E0E6DC5C
:10072000C3DD85E090E09093E6018093E50174C01D
:10073000049709F06BC03091E3013F5F3093E00113
:1007400042E022C092B7989D812D112482958F702E
:10075000899D9019112490931F02892F90E0FC012C
:10076000EE0FFF1FEE0FFF1FE05BFD4F5281511197
:100770000DC0880F991F880F991FFC01E05BFD4F8A
:1007800042832F5F2093E3012091E3012317D0F2EE
:100790001092E00189E091E0CEDCE2018A818230B2
:1007A00041F5E091E001F0E0EE0FFF1FEE0FFF1FBB
:1007B000E05EFD4F888139812A819B81682F80838B
:1007C00031832283938381E0C4DCE091E001F0E097
:1007D000EE0FFF1FEE0FFF1FE05EFD4F618181E016
:1007E000B8DC87E191E0A7DC8091E0018F5F809326
:1007F000E0012496CA15DB0589F68DE491E09BDCC7
:1008000083DD7092E6016092E5014BC08091E501C5
:100810009091E6010597D9F489EF90E00197F1F7FF
:1008200000C0000087E691E061DC6EDC8093170277
:1008300059DC8091170280538A3048F4D7018C9399
:1008400086E090E09093E6018093E50106C08091F8
:10085000E5019091E601069721F556DC8093170299
:1008600041DC8DE491E042DC8091170280538A30B4
:10087000C0F4F70181839081990F292F220F220F55
:10088000920F890F8150828389EF90E00197F1F7F1
:1008900000C0000087E090E09093E6018093E501BE
:1008A00006C08091E5019091E6010797A9F48EE7D3
:1008B00091E01CDC29DC8093170214DC8091170284
:1008C00080538A3048F4D8018C9388E090E090936C
:1008D000E6018093E50106C08091E5019091E60173
:1008E0000897E9F411DC80931702FCDB8DE491E0BA
:1008F000FDDB8091170280538A3088F4F8018183F0
:100900009081990F292F220F220F920F890F828336
:1009100089E090E09093E6018093E50108C0809122
:10092000E5019091E6018930910509F067C0D70192
:100930001296EC91F0E0EE0FFF1FEE0FFF1FE05E4E
:10094000FD4F81818093E00189E891E0CFDB6091E8
:10095000E00180E0FEDB8DE491E0C8DBF8019281EC
:100960008091E00198133DC08AE991E0BFDBD70197
:100970001296CC91D0E0FE01EE0FFF1FEE0FFF1F8D
:10098000E05EFD4F81E083839181F201CC0FDD1F9A
:10099000CC0FDD1FC05EDD4F31E08181891305C0C2
:1009A00020818881281301C033833496EA15FB0522
:1009B000A1F77ADC8091E1018F5F8093E101909152
:1009C000E301891307C08EE190E09093E6018093E4
:1009D000E5015BC085E090E09093E6018093E5013E
:1009E00054C084EA91E082DB8CEA91E07FDB84E012
:1009F00090E09093E6018093E50147C00A97D9F40F
:100A0000E9EFF0E03197F1F700C0000087E691E0F0
:100A100092DBAADC8093170286DB80911702805359
:100A20008A3048F4D7018C938BE090E09093E601F4
:100A30008093E50106C08091E5019091E6010B9756
:100A400021F592DC809317026EDB8DE491E073DB7D
:100A50008091170280538A30C0F4F701818390811E
:100A6000990F292F220F220F920F890F8150828315
:100A700089EF90E00197F1F700C000008CE090E072
:100A80009093E6018093E50106C08091E501909185
:100A9000E6010C9799F48EE791E04DDB65DC8093DD
:100AA000170241DB8091170280538A3038F4D80155
:100AB0008C933092E6012092E50106C08091E50119
:100AC0009091E6010D97E9F44FDC809317022BDB40
:100AD0008DE491E030DB8091170280538A3088F4F6
:100AE000F80181839081990F292F220F220F920FF5
:100AF000890F82838EE090E09093E6018093E50178
:100B000008C08091E5019091E6018E30910509F0D1
:100B100063C0D7011296EC91F0E0EE0FFF1FEE0FCD
:100B2000FF1FE951FE4F81818093E00189E891E048
:100B300002DB6091E00181E00CDB8DE491E0FBDA07
:100B4000F80192818091E00198133BC08AE991E01D
:100B5000F2DAD7011296CC91D0E0FE01EE0FFF1F22
:100B6000EE0FFF1FE951FE4F81E083839181F20177
:100B7000CC0FDD1FCC0FDD1FC951DE4F31E081816D
:100B8000891305C020818881281301C033833496DE
:100B9000EA15FB05A1F7B8DB8091E2018F5F809336
:100BA000E2019091E401891307C08EE190E09093F7
:100BB000E6018093E50113C07092E6016092E501C1
:100BC00047CC84EA91E0B7DA8EEB91E0B4DAD092C8
:100BD000E601C092E5013CCC4E9709F039CC80ED9E
:100BE00091E084DA80ED91E0A6DA2ACCF894FFCF88
:100BF0003130003131003132005032204465636BB6
:100C0000203A200058580020202000503120446510
:100C1000636B203A20005072657373205920746F03
:100C20002053746172740D0A0057616974696E67AC
:100C300020666F7220506C6179657220310D0A0058
:100C400057616974696E6720666F7220506C6179B4
:100C5000657220320D0A0043686F6F73652043612F
:100C6000726420746F204F70656E203A20004E75BC
:100C70006D6265723F203A2000546172676574208E
:100C80004E756D626572203A2000436F7272656323
:100C9000740D0A0057726F6E670D0A00506C61790F
:100CA000657220322773205475726E0D0A00506CE5
:100CB0006179657220312773205475726E0D0A00B8
:100CC00050312057696E0D0A5032204C6F73650009
:00000001FF
