:1000000045C0000058C0000056C0000054C00000A9
:1000100052C0000050C000004EC000004CC00000A4
:100020004AC0000048C0000046C0000044C00000B4
:1000300042C0000040C000003EC000003CC00000C4
:100040003AC0000038C0000036C0000034C00000D4
:1000500032C0000030C000002EC000002CC00000E4
:100060002AC0000028C0000026C0000024C00000F4
:1000700022C0000020C000001EC000001CC0000004
:100080001AC0000018C0000016C0000011241FBED6
:10009000CFEFD0E1DEBFCDBF11E0A0E0B1E0E0E600
:1000A000F1E000E00BBF02C007900D92A632B1074D
:1000B000D9F73CD053C0A4CFEBE9F0E0908195FF95
:1000C000FDCF80939C00EBE9F0E08081806280832B
:1000D00008958BEF81BB12BA10929B0088E1809348
:1000E0009A0086E080939D001092980087E68093A6
:1000F00099008DE090E0E0DF8AE090E0DDCF0895A8
:10010000CF93DF93EC018881882329F02196D4DFF7
:1001100089918111FCCFDF91CF910895EBE9F0E057
:1001200080818823ECF780919C000895D2DF80E0E5
:1001300091E0E6DFF3DFC82F83E191E0E1DF8C2F70
:10014000BBDF80E191E0DCDF2FE78AE196E0215020
:1001500080409040E1F700C00000E9CFF894FFCF65
:10016000496E73657274204E756D626572203A2017
:100170000D0A00496E736572746564204E756D6278
:060180006572203A200028
:00000001FF
