S017000041546D6567613132385F54696D65722E73726563E3
S113000045C0000053C0000051C000004FC00000B4
S11300104DC000004BC0000049C0000047C00000B4
S113002045C0000043C0000041C000003FC00000C4
S11300303DC000003BC000003AC0000037C00000D3
S113004035C0000033C0000031C000002FC00000E4
S11300502DC000002BC0000029C0000027C00000F4
S113006025C0000023C0000021C000001FC0000004
S11300701DC000001BC0000019C0000017C0000014
S113008015C0000013C0000011C0000011241FBEE1
S1130090CFEFD0E1DEBFCDBF21E0A0E0B1E001C0F1
S11300A01D92A230B207E1F72CD037C0A9CF1F921E
S11300B00F920FB60F9211248F939F93809100019A
S11300C090910101892B49F481E08BBB81E090E0A0
S11300D090930101809300010BC0809100019091E5
S11300E00101019729F41BBA109201011092000139
S11300F08BED82BF9F918F910F900FBE0F901F9039
S1130100189581E08ABB1BBA1FBC84E08EBD87BFF3
S111011012BE8BED82BF7894FFCFF894FFCF20
S9030000FC
