S01700004763634170706C69636174696F6E312E737265635B
S113000045C00000C1C00000D3C00000E5C000002E
S1130010F7C0000009C100001BC100002DC1000091
S11300203FC1000050C000004EC000004CC00000A2
S11300304AC0000048C0000046C0000044C00000A0
S113004042C0000040C000003EC000003CC00000B0
S11300503AC0000038C0000036C0000034C00000C0
S113006032C0000030C000002EC000002CC00000D0
S11300702AC0000028C0000026C0000024C00000E0
S113008022C0000020C000001EC0000011241FBEBA
S1130090CFEFD0E1DEBFCDBF11E0A0E0B1E0E2E4FC
S11300A0F7E000E00BBF02C007900D92A238B10741
S11300B0D9F721E0A2E8B1E001C01D92A239B2074C
S11300C0E1F702D13CC39CCF9093900089B988E1B9
S11300D08AB986E08093950008955D9BFECF8CB924
S11300E00895CF93DF93EC018881882329F021962A
S11300F0F4DF89918111FCCFDF91CF91089586B10E
S1130100806C86B93699FECF24B185B1379890E0DA
S1130110982F8827820F911D08958CE683BF82E073
S113012087BF089583E089BF8AE080936A000895B9
S11301308AE191E0D6DF8EE191E0D3DF88E291E0BD
S1130140D0DF8CE291E0CDDF81E090E090938F01ED
S113015080938E010895E0E0F1E0818181BF2FEF6B
S113016083E294EF215080409040E1F700C000000A
S1130170818181BF2FEF83E294EF21508040904032
S1130180E1F700C0000008951F920F920FB60F927E
S113019011248F939F9381E090E090938B0180933F
S11301A08A019F918F910F900FBE0F901F90189509
S11301B01F920F920FB60F9211248F939F9382E098
S11301C090E090938B0180938A019F918F910F907F
S11301D00FBE0F901F9018951F920F920FB60F929B
S11301E011248F939F9383E090E090938B018093ED
S11301F08A019F918F910F900FBE0F901F901895B9
S11302001F920F920FB60F9211248F939F9384E045
S113021090E090938B0180938A019F918F910F902E
S11302200FBE0F901F9018951F920F920FB60F924A
S113023011248F939F9385E090E090938B0180939A
S11302408A019F918F910F900FBE0F901F90189568
S11302501F920F920FB60F9211248F939F9386E0F3
S113026090E090938B0180938A019F918F910F90DE
S11302700FBE0F901F9018951F920F920FB60F92FA
S113028011248F939F9387E090E090938B01809348
S11302908A019F918F910F900FBE0F901F90189518
S11302A01F920F920FB60F9211248F939F9388E0A1
S11302B090E090938B0180938A019F918F910F908E
S11302C00FBE0F901F90189511BA109261008FEF16
S11302D08ABB87BB80E88FBF10928F0110928E017A
S11302E087E690E0F1DE1EDF18DF8CE391E0F9DEB3
S11302F0222423946894332431F80F2EF2E0AF2E95
S1130300F1E0BF2EF02D02E610E00F2EF2E8CF2E22
S1130310F1E0DF2EF02D0F2EF5E04F2E512CF02DB5
S11303206894882482F8912C0F2EF2E16F2EF1E06C
S11303307F2EF02DEE24E394F12C27B8E0DEEC01BF
S11303402FEF31EE44E0215030404040E1F700C04F
S1130350000037B8D4DEAFEFB1EEE4E0A150B04016
S1130360E040E1F700C0000020918E0130918F0140
S11303702115310559F4C935D2401CF48935924010
S1130380E4F2F0928F01E0928E01D7CF2130310553
S113039009F04DC08AE191E0A4DE80E491E0A1DEA1
S11303A088E291E09EDE8AE491E09BDE8DE095DEBA
S11303B080B38178813809F4C0CF80B370B360B35F
S11303C050B340B330B320B3E0B3922D813009F081
S11303D090E0822D723009F080E0982B822D6430F9
S11303E009F080E0892B922D583009F090E0982B89
S11303F0822D403109F080E0892B922D303209F0B2
S113040090E0982B822D203409F080E0892B39F478
S1130410822DE03809F080E0882309F48ECF8091A2
S11304208A0190918B01D6018D939C9386CF2230C3
S1130430310509F046C080B370B360B350B340B324
S113044030B320B3E0B3922D813009F090E0822DD7
S1130450723009F080E0982B822D643009F080E03E
S1130460892B922D583009F090E0982B822D403141
S113047009F080E0892B922D303209F090E0982B1E
S1130480822D203409F080E0892B39F4822DE03864
S113049009F080E0882309F450CF80918A0190917B
S11304A08B01E3019983888389E591E01ADE88E270
S11304B091E017DEF6018081918113DE8DE00DDE7F
S11304C03CCF2330310589F489E591E00ADE88E2E6
S11304D091E007DED6018D919C9103DE8DE0FDDD78
S11304E090928F0180928E0128CF2430310509F03B
S11304F049C080B370B360B350B340B330B320B3DA
S1130500E0B3922D813009F090E0822D723009F031
S113051080E0982B822D643009F080E0892B922DA5
S1130520583009F090E0982B822D403109F080E09A
S1130530892B922D303209F090E0982B822D2034B3
S113054009F080E0892B39F4822DE03809F080E04D
S1130550882309F4F2CE80918A0190918B01E601FF
S11305609B838A8383E691E0BCDD88E291E0B9DD78
S11305708A819B81B6DD8DE0B0DD50928F0140927F
S11305808E01DBCE2530310509F04EC080B370B347
S113059060B350B340B330B320B3E0B3922D813095
S11305A009F090E0822D723009F080E0982B822DC2
S11305B0643009F080E0892B922D583009F090E0E6
S11305C0982B822D403109F080E0892B922D303216
S11305D009F090E0982B822D203409F080E0892BDB
S11305E039F4822DE03809F080E0882309F4A5CE9F
S11305F080918A0190918B01F601958384838DE625
S113060091E06FDD88E291E06CDDD60114968D9166
S11306109C91159766DD8DE060DDC6E0D0E0D09357
S11306208F01C0938E0189CE2630310509F04EC06A
S113063080B370B360B350B340B330B320B3E0B30E
S1130640922D813009F090E0822D723009F080E023
S1130650982B822D643009F080E0982B822D58303D
S113066009F080E0982B822D403109F080E0982B2E
S1130670822D303209F080E0982B822D203409F04D
S113068080E0892B39F4822DE03809F080E088235A
S113069009F453CE80918A0190918B01F6019783DE
S11306A0868387E791E01DDD88E291E01ADDD601BB
S11306B016968D919C91179714DD8DE00EDDC7E0A1
S11306C0D0E0D0938F01C0938E0137CE273031050F
S11306D041F42EDDE8E0F0E0F0938F01E0938E0129
S11306E02CCE2830310509F028CEE2E1F1E0A2E079
S11306F0B1E08C911296E8018883DFEF21EE34E0BB
S1130700D15020403040E1F700C00000EA17FB0759
S113071081F732978081D8018C93BFEFC1EED4E08A
S1130720B150C040D040E1F700C00000EA15FB051D
S113073081F711DD10928F0110928E01FECDF89495
S1050740FFCFE5
S113074201FE010002000400080010002000400025
S11307528000010002000300040024430D0024472A
S11307622C20312C20370D0024542C0057726F6E2C
S1130772672050617373776F7264210024490D00FE
S113078224472C20312C20320D00456E74657220D2
S113079250617373776F72640024472C20322C20CB
S11307A2370D0024472C20322C20380D0024472CEE
S11307B220322C20390D0024472C20322C203130B9
S10507C20D0024
S9030000FC
