S00D000055534152542E7372656388
S113000045C000004BC0000049C0000047C00000CC
S113001045C0000043C0000041C000003FC00000D4
S11300203DC000003BC0000039C0000037C00000E4
S113003035C0000033C0000031C000002FC00000F4
S11300402DC000002BC0000029C0000027C0000004
S113005025C0000023C0000021C000001FC0000014
S11300601DC000001BC0000019C0000017C0000024
S113007015C0000013C0000011C000000FC0000034
S11300800DC000000BC0000009C0000011241FBEF9
S1130090CFEFD0E1DEBFCDBF15D027C0B1CF909355
S11300A0900089B988E18AB986E080939500089523
S11300B05F9BFECF8CB108958FEF80936100109207
S11300C06200089587E690E0EADFF6DFC2E6D0E05A
S11300D0EFDF805388832FEF81EE94E0215080403E
S11100E09040E1F700C00000F3CFF894FFCF8A
S9030000FC
