:1000000045C000004BC0000049C0000047C00000D0
:1000100045C0000043C0000041C000003FC00000D8
:100020003DC000003BC0000039C0000037C00000E8
:1000300035C0000033C0000031C000002FC00000F8
:100040002DC000002BC0000029C0000027C0000008
:1000500025C0000023C0000021C000001FC0000018
:100060001DC000001BC0000019C0000017C0000028
:1000700015C0000013C0000011C000000FC0000038
:100080000DC000000BC0000009C0000011241FBEFD
:10009000CFEFD0E1DEBFCDBF14D065C0B1CF90931C
:1000A000900089B988E18AB986E080939500089527
:1000B0005F9BFECF8CB108958CE683BF82E087BF43
:1000C0000895CF93DF9300D000D000D0CDB7DEB736
:1000D000F3DF8FEF87BB87E690E0E1DFFE0131962B
:1000E00086E0DF011D928A95E9F7E12CF12C00E012
:1000F00010E00F2EF4E6DF2EF02DDADF90E0C0974F
:100100008A30910570F5F801EE0FFF1F21E030E015
:100110002C0F3D1FE20FF31F918380830F5F1F4F52
:1001200003301105F1F48D819E81D89E7001D99E16
:10013000F00C11248B819C81AC01440F551F9C0154
:10014000220F331F220F331F220F331FCA01820FCA
:10015000931F8E0D9F1DE980FA80E80EF91E00E0C6
:0A01600010E0E1BECACFF894FFCF13
:00000001FF
