S014000054696D6572436F756E7465722E737265632F
S113000045C0000060C000005EC000005CC000008D
S11300105AC0000058C0000056C0000054C0000080
S113002052C0000050C000004EC000004CC0000090
S11300304AC0000048C0000046C0000067C000007D
S113004042C0000040C000003EC000003CC00000B0
S11300503AC0000038C0000036C0000034C00000C0
S113006032C0000030C000002EC000002CC00000D0
S11300702AC0000028C0000026C0000024C00000E0
S113008022C0000020C000001EC0000011241FBEBA
S1130090CFEFD0E1DEBFCDBF11E0A0E0B1E0EAE8F0
S11300A0F3E000E00BBF02C007900D92AA31B10744
S11300B0D9F721E0AAE1B1E001C01D92AE31B20747
S11300C0E1F760D060C19CCF9093900089B988E13A
S11300D08AB986E08093950008955D9BFECF8CB924
S11300E00895CF93DF93EC018881882329F021962A
S11300F0F4DF89918111FCCFDF91CF91089584E0E1
S113010083BF82E087BF89EF81BF08951F920F925A
S11301100FB60F9211242F938F939F9380911A01FE
S113012090911B010196883E23E0920729F0909359
S11301301B0180931A010DC010921B0110921A0129
S113014080911C0190911D01019690931D01809353
S11301501C0180911C0190911D018436910521F4AC
S113016010921D0110921C019F918F912F910F905D
S11301700FBE0F901F9018958FEF8093610010921F
S11301806200089587E690E09FDFB9DFF5DF14BAD7
S113019080E88FBF00E010E0C0E0D0E00F2EF2E670
S11301A0CF2ED12CF02D77247394812CE12CF12CBB
S11301B06894992492F80F2EF8E1AF2EF02D0F2EAB
S11301C0F4E6BF2EF02DE0911C01F0911D01E770C3
S11301D0FF27EE0FFF1FE050FF4F8081F601808361
S11301E0989B0AC0209731F0C130D10529F4CE2D57
S11301F0DF2D02C0C72DD82D9A9B0BC00115110508
S113020031F00130110529F40E2D1F2D02C0072DE8
S1130210182D999B08C0E0921A01F0921B01E092FC
S11302201C01F0921D01EFE3FCE93197F1F700C0E6
S11302300000C130D10511F413BE01C093BE0130DA
S1130240110511F41AB801C0AAB880E191E049DFA0
S113025020911C0130911D01ADECBCEC85D096952C
S113026087959695879596958795805D36DF40911D
S11302701C0150911D019A01ADECBCEC75D0969512
S1130280879596958795969587959C01220F331FA0
S1130290880F991F880F991F880F991F820F931F2A
S11302A09A01281B390BC901805D17DF8EE215DF27
S11302B020911A0130911B01369527953695279583
S11302C0ABE7B4E151D096958795805D06DF409108
S11302D01A0150911B019A01369527953695279559
S11302E0ABE7B4E141D096958795B89E9001B99E4D
S11302F0300D1124CA01821B930B9C01ADECBCECA4
S113030033D0969587959695879596958795805D34
S1130310E4DE40911A0150911B019A01ADECBCEC52
S113032023D09695879596958795969587959C0164
S1130330220F331F880F991F880F991F880F991F49
S1130340820F931FFA01E81BF90BCF01805DC5DE14
S11303508DE0C3DEFFEF21EE34E0F1502040304069
S1130360E1F700C000002FCFA29FB001B39FC001EE
S1130370A39F700D811D1124911DB29F700D811DCD
S10D03801124911D0895F894FFCF95
S113038A0100030007000F001F003F007F00FF0069
S10D039A54696D6572203A200000DA
S9030000FC
